:0C0000000C9423010C9400000C940000F0
:10000C000C9400000C9400000C9400000C94000064
:10001C000C9400000C9400000C9400000C94000054
:10002C000C9400000C9400000C9400000C94000044
:10003C000C9400000C9400000C9400000C94000034
:10004C000C9400000C9400001027E80364000A00D4
:10005C0001000010000110000100000030313233AB
:10006C0034353637383941424344454630313233E2
:10007C003435363738394142434445461000200068
:10008C0040008000102040801400500000006300ED
:10009C0000006300000032004162726568666F7296
:1000AC006F7573680A3938313636303300202020AA
:1000BC002020202020202020202020202020202034
:1000CC0057656C636F6D6520746F20746865204D87
:1000DC006963726F70726F636573736F72204C61BA
:1000EC00626F7261746F72792061742049736661FA
:1000FC0068616E20556E6976657273697479206FCC
:10010C006620546563686E6F6C6F67792E003D3E98
:10011C00707265737320736F6D65204B6579005336
:10012C00706565643A3F3F2825642D256425632955
:10013C000073706565640025632563005370656505
:10014C00643A45452825642D2564256329005469A6
:10015C006D653A3F3F2825642D256425632900747D
:10016C00696D650054696D653A45452825642D25F2
:10017C00642563290057656967743A3F3F282564F5
:10018C002D25642563290057656967743A45452810
:10019C0025642D25642563290054656D703A3F3F15
:1001AC002825642D25642563290054656D703A4516
:1001BC00452825642D256425632900533A2563259C
:1001CC0063727C54696D653A256325637300573AF5
:1001DC0025632563467C54656D703A25632563431E
:1001EC00000080C001002D4E414E00494E460000DB
:1001FC0002000400660010008701680010009701DF
:10020C0078000700A70188000400AF0190001100DE
:10021C0060011A01060071013D01050077016B01B7
:10022C0006007C013D01050082016B010200B30157
:10023C00EE010100B701F0010000F894EE27ECBBD1
:10024C00F1E0FBBFEBBFE5BF8DE0A2E0BB27ED9378
:10025C008A95E9F780E094E0A0E6ED930197E9F741
:10026C00ECEFF1E085919591009761F0A591B59136
:10027C0005901590BF01F00105900D920197E1F7E3
:10028C00FB01F0CFEFE5EDBFE4E0EEBFC0E6D1E05F
:10029C000C945001EFEFEABBE0E0EBBBE7BBE8BB33
:1002AC00EFE0E4BBE0E0E5BBEFE0E1BBE0E0E2BBAC
:1002BC00E3BFE2BFECBFEFBDEEBDEDBDECBDE7BDF6
:1002CC00E6BDEBBDEABDE9BDE8BDE2BDE5BDE4BD03
:1002DC00E3BDE9BFE5BFE4BFEAB9E0E8E8B9E0E0B7
:1002EC00E0BFE6B9EDB9E6BFA0E10E941F040ED055
:1002FC000E9471061AD00E9471069ED00E9471064F
:10030C00FFD00E94710613D1F2CFFFCFE2970E946B
:10031C00EE03FE01FA93EA93E4EAF0E00E9475061C
:10032C00DE010E940E04E2960895EF97E9971A9366
:10033C000A9300E010E0FE017696FA93EA93E9EB5B
:10034C00F0E00E94750600E010E00436E0E01E07C5
:10035C00FCF40E94EE030E947C06F801DE01589624
:10036C00EA0FFB1FFA93EA93A0E10E944806DE0114
:10037C0012960E940E040E947C06E0E0F0E00E94BF
:10038C007506A2E3B0E00E94B4070F5F1F4FDDCFEC
:10039C0019810881EF96EB9608950E94770744E641
:1003AC0050E0E4E6F0E0E417F507E9F500E010E0D2
:1003BC000430E0E01E07B4F5AFEAB1E0A00FB11FC6
:1003CC00EC91E8BB24E130E0AAE0B0E00E94B40775
:1003DC00B09B02C020E030E0B19B02C021E030E0D5
:1003EC00B29B02C022E030E0B39B02C023E030E0BD
:1003FC00E4E1F0E0E217F30781F0F8010E949D07B9
:10040C00E20FF31FAF01E0EFE8BBB099FECFB1995B
:10041C00FECFB299FECFB399FECFE0EFE8BB0F5FF2
:10042C001F4FC6CFBECFA7E8B1E0A40FB51FEC910C
:10043C000E947E0726960895E0EFE7BBA09AADDFF9
:10044C00AE2F0E94FA03A4EFB1E00E94B407C0D112
:10045C00F6CF44245524BCD10E94810608950E94F5
:10046C00790730E0303009F049C000E010E004308A
:10047C00E0E01E0784F5F801A7EAB1E0EE0FFF1FDC
:10048C00AE0FBF1FEC91E8BBB09B06C00E94850667
:10049C00AE0FBF1F3C911FC0B19B06C00E948506CA
:1004AC00EA0FFB1F318117C0B29B06C00E94850664
:1004BC00EA0FFB1F32810FC0B39B06C00E9485065A
:1004CC00EA0FFB1F338107C0A5E0B0E00E94B40720
:1004DC000F5F1F4FCCCFA0E0B099A1E0E0E0B19945
:1004EC00E1E0EA2BAE2FE0E0B299E1E0EA2BAE2F8F
:1004FC00E0E0B399E1E0EA2B71F7B4CFE32F95C1BB
:10050C00A8DFA0E6B1E084D1A4ECB9E00E948B0690
:10051C00EBB7E068EBBFEFEFE8BBE6E0F0E04E16C0
:10052C005F06DCF3EBB7EBBFE0EFE8BB0895AA97EF
:10053C0080E162E170E0E4E9F0E00E9485071A9343
:10054C000A9387DF0E948F060E949406EBE2F1E08B
:10055C000E949906A1E7B1E00E94B5060E948106AF
:10056C007EDFEAA7AAA50E94BA060E94810677DF61
:10057C00EBA7ABA50E94C0060E94C3060E94C8064A
:10058C000E94D506EAA1FBA1E017F1072CF0E8A127
:10059C00F9A10E171F075CF40E948F06E5E4EBA788
:1005AC00EAA70E949406E8E4F1E00E9499060E94F2
:1005BC00DF060E949406EAE5F1E00E94E406A7E754
:1005CC00B1E00E94B5060E940007E8A7A8A50E940A
:1005DC00BA060E940007E9A7A9A50E94C0060E94BE
:1005EC00C306ECA50E940607E9A90E9406070E9413
:1005FC00D506EE8DFF8DE017F1072CF0EC8DFD8DFF
:10060C000E171F075CF40E94DF06E5E4E9A7E8A7D4
:10061C000E949406E0E7F1E00E94E406A8EEB3E045
:10062C000E948B060E948F060E949406E1E8F1E07E
:10063C000E940C07ACE7B1E00E94B5060E9481064F
:10064C000EDFEEA3AEA10E94BA060E94810607DF60
:10065C00EFA3AFA10E94C0060E94C306EAA50E94A8
:10066C000607EFA50E9406070E94D506EA8DFB8DB2
:10067C00E017F1072CF0E88DF98D0E171F075CF4CD
:10068C00E5E4EFA3EEA30E948F060E949406E3E933
:10069C00F1E00E940C070E94DF060E949406E5EA36
:1006AC00F1E00E942807A2E8B1E00E94B5060E9482
:1006BC000007ECA3ACA10E94BA060E940007EDA3B0
:1006CC00ADA10E94C0060E94C306E8A50E940607C1
:1006DC00EDA50E9406070E94D506EE89FF89E0175A
:1006EC00F1072CF0EC89FD890E171F075CF4E5E48B
:1006FC00EDA3ECA30E94DF060E949406E6EBF1E06A
:10070C000E942807A8EEB3E00E948B060E94940674
:10071C00E7ECF1E0FA93EA930E94C806ECA90E9478
:10072C000607E8AD0E9406070E9444070E94DF06F8
:10073C000E949406EAEDF1E0FA93EA93EAA50E948E
:10074C000607EFA50E940607E8A90E940607ECA978
:10075C000E9406070E944407A0E1B7E20E94B4077A
:10076C0019810881AC9608951A931A2FEBB3EF7088
:10077C00AE2FE12FE07FEA2BEBBB8DE08A95F1F7F2
:10078C00DA9A8DE08A95F1F7DA988DE08A95F1F78F
:10079C007DC0AA93A881E8DFE881E295E883A8816F
:1007AC00E3DF85E88A95F1F7219608951A930A9369
:1007BC001A2F0A81E12FF0E0ED54FE4FE081E00F9B
:1007CC00AE2FE7DF702E612E1981088123960895D4
:1007DC00A2E00E944C07ACE0DCDFA1E00E944C07D9
:1007EC00E0E06E2E7E2E08951A931A2F1A3011F017
:1007FC00791440F0E0E0EA936394A62DD7DF1A3029
:10080C0009F444C07394D89AA12FC3DFD8983EC082
:10081C000E9479079D01D9012F5F3F4FEC911E2F4C
:10082C00E03019F0A12FE0DFF6CF0E94800724966C
:10083C0008951A931A2FEAB3E06FEABBD29AD09AB2
:10084C00D19ADA98D898D998912EE12FE058E09364
:10085C00B501E12FE054E093B601A4E1B0E00E94B1
:10086C00B4070E9452070E9452070E945207A0E24E
:10087C007BDF88EC90E00197F1F7A8E28ADFA4E037
:10088C0088DFA5E886DFA6E084DFA2DF1991089552
:10089C000E9477079D015E8112960E94A7073097F0
:1008AC0031F1D90114960E94A7078F01309759F0A6
:1008BC000230E0E01E0780F0F80131978F01D9017A
:1008CC001496ED93FC93D9011296ED91FD9131960E
:1008DC00FE93EE9331975083D9010E94A707FF2313
:1008EC002AF0ED91FD913196FE93EE9305C0D9015E
:1008FC00EFEFFFEFED93FC930E947E072796089590
:10090C00BA93AA9326970E94770710E0AC85BD8511
:10091C00E0E0F0E0ED93FC93EA89FB893196EA8BF9
:10092C00FB8B3197E4912E2FE03009F41DC1E12FA0
:10093C00E03039F4253211F411E002C00E945A075C
:10094C0012C1E130A9F4253219F40E945A070AC1E8
:10095C0012E040E000E02D3211F401E004C12B3232
:10096C0011F44BE200C1203211F440E2FCC002C091
:10097C00E23039F450E013E0203311F40068F3C096
:10098C0003C0E33009F0EFC0203310F02A3308F035
:10099C0007C0AAE05A9F502DE22FE0535E0FE3C030
:1009AC00E22FE33649F40E946107E889F989A481B2
:1009BC00AA930E946707D6C0E33741F40E946107EF
:1009CC000E946D070E942F061E2F0AC0E03761F4AB
:1009DC000E9461070E946D070E943B061E2F086053
:1009EC0002600F7730E03CC0E43611F0E93611F4C8
:1009FC00046002C0E53731F4E4E5F0E0EE83FF83F8
:100A0C0015E00CC0E83511F4086003C0E83709F0B4
:100A1C00A9C0EEE5F0E0EE83FF8314E002FF17C0FF
:100A2C000E946107A889B9891496ED91FD91EA8716
:100A3C00FB87AB85AA232AF40E949907EA87FB87D8
:100A4C004DE2403011F01F5F01C00B7F09C00E94C6
:100A5C006107A889B98914960E94A707EA87FB87C2
:100A6C0000FD11C0151778F407FF08C002FF04C081
:100A7C000B7F242F115001C020E301C020E20E9403
:100A8C005A075150EFCF312F01FF17C03030A1F072
:100A9C0003FF06C0EE81FF812591EE83FF8305C025
:100AAC00AE81BF812D91AE83BF830E945A07503017
:100ABC0009F051503150EACF4BC020E3EE81FF8159
:100ACC000E94AB07E887F987EE81FF813296EE83AF
:100ADC00FF83E885F985AA85BB85AE17BF0750F063
:100AEC002F5FA885B985EA85FB85EA1BFB0BEA8796
:100AFC00FB87EFCF2A3328F003FF02C0295F01C028
:100B0C00295D04FD1AC0213320F4A885B9851197FD
:100B1C0009F409C0531710F000FF01C013C020E204
:100B2C0007FF0BC020E3006102FF07C00B7F4A9355
:100B3C000E946707503009F051500E945A075030FC
:100B4C0009F051503150A885B985129708F0B5CFEE
:100B5C0000FF08C0503031F05150E0E2EA930E949F
:100B6C006707F8CF10E0D8CEAC85BD85ED91FD912F
:100B7C000E947E0764960895FF92F82E26970E9495
:100B8C007707FE010E94910746855785042E052A9A
:100B9C0019F4EFEFFFEF21C0DE0118960E949507C4
:100BAC008D0148875987E0E0EA87EB87DE011C96C8
:100BBC000E949507ED91FD91FA93EA931A930A938B
:100BCC00EEE4F4E0FA93EA93DE011C9699DE9F01C1
:100BDC00A885B985E0E0EC93F9010E947E072C967C
:100BEC00FF900895BA93AA93B981A881EC918A2FAA
:100BFC00AE2F0E946606A82FEE2311F01196F6CFA9
:100C0C00E894EC91ED3211F4689402C0EB3209F4E3
:100C1C00119666277727EC918A2FAE2F0E945D06DE
:100C2C00A82FEE2379F0FB01660F771F660F771F55
:100C3C006E0F7F1F660F771FED91FF27E0536E0F2E
:100C4C007F1FE9CFFB011EF4E095F09531962296BB
:100C5C000895BA93AA93A991B991EE27FF276D91A4
:100C6C00662311F03196FBCF0895BA93AA93AA2765
:100C7C00BB27E991F9910590002011F01196FBCF5B
:100C8C00FD010895AA937991E991F991A991B991EE
:100C9C00CD01772351F07A9561916D936623C9F755
:100CAC00772319F07A956D93FBCFFC010895AA93E5
:100CBC00E1E0F991F03310F0FA3308F0EE270895E3
:100CCC00AA93E1E0F991F03229F0F93010F0FE30FE
:100CDC0008F0EE270895A8E8B3E10C94B407FA9352
:100CEC00EA9380E00E94C20524960895FE01329694
:100CFC00FA93EA9308954A92A0E00C94DC03F8016D
:100D0C00A7E9B1E00E949D0708950E94B4070C94D6
:100D1C002F02E0E0EA93A0E00C94DC03FE01349691
:100D2C00FA93EA930895FA93EA93ECA1FDA10E9439
:100D3C00A2070E94AF07EAA5FBA50E94A2070E948A
:100D4C00AF07E2E7F0E060E070E00E94AF078CE0F4
:100D5C000E94C2056096DE0114960C940E040E944B
:100D6C002F0631962F0108950E94FA03F201319655
:100D7C002F0108950E94FA03B9CFE3E4F1E0FA934E
:100D8C00EA930895EEA5FF27662777270E94AF0701
:100D9C00EBA9FF27662777270E94AF07089588E005
:100DAC000E94C2052C96DE0112960E94F8058F0156
:100DBC000895E0E0EA93A1E00C94DC03FA93EA9343
:100DCC00E8A1F9A10E94A2070E94AF07EEA1FFA122
:100DDC000E94A2070E94AF07E3E7F0E060E070E03A
:100DEC000E94AF078CE00E94C2056096DE0114964B
:100DFC000C940E044A92A1E00E94DC030C94350280
:100E0C00FF27662777270E94AF070895FA93EA9386
:100E1C00EC8DFD8D0E94A2070E94AF07EAA1FBA1F9
:100E2C000E94A2070E94AF07E6E4F0E060E070E0E9
:100E3C000E94AF078CE00E94C2056096DE011496FA
:100E4C000C940E04FA93EA93E88DF98D0E94A20794
:100E5C000E94AF07EE8DFF8D0E94A2070E94AF0784
:100E6C00E3E4F0E060E070E00E94AF078CE00E94E9
:100E7C00C2056096DE0114960C940E0480E10E946B
:100E8C00C2056496DE0114960C940E040E94CF03E6
:100E9C00A3E0B0E00C94B407A0E30E94BA0388EC82
:100EAC0090E00197F1F708952A93AD85BE85EF8503
:100EBC00F88909950895E889F9893497E88BF98BB5
:100ECC000895AD85BE85EF85F88909950895A889A3
:100EDC00B9891496ED91FD91EE83FF83AE81BF81AC
:100EEC0008955A934A933A932A931A930A9308951E
:100EFC005D814C813B812A81198108810895AF93D2
:100F0C00BF93DB01AC0FBD1F05900D928A95E1F7E5
:100F1C00BF91AF9108950024EF0DF01D08950024AA
:100F2C00AF0DB01D0895F195E195F0400895EE0FC9
:100F3C00FF1FEE0FFF1F08956F2F660F660B762FA6
:100F4C000895ED91FC91119708950590F491E02D81
:100F5C0008957A936A93FA93EA930895109639F068
:100F6C00A89580ED97E00197F1F71197C9F70895CF
:00000001FF
