:0A0000000C945D000C948A000C942F
:10000A008E000C9400000C9400000C9400000C94D8
:10001A0000000C9400000C9400000C9492000C94C4
:10002A0000000C9400000C9400000C9400000C9446
:10003A0000000C9400000C9400000C9400000C9436
:10004A0000000C9400000C9400001027E8036400E0
:10005A000A0001000010000110000100E80320203E
:10006A00253032643A253032643A253032643A25F2
:10007A0030326420200043453A253464202A2A205D
:10008A00003530555335000001002D4E414E0049D0
:10009A004E46000080C0020066016600060060014C
:1000AA008B0001006C019200020070019E000000AA
:1000BA00F894EE27ECBBF1E0FBBFEBBFE5BF8DE0A8
:1000CA00A2E0BB27ED938A95E9F780E094E0A0E6E9
:1000DA00ED930197E9F7E0EAF0E0859195910097B1
:1000EA0061F0A591B59105901590BF01F0010590B9
:1000FA000D920197E1F7FB01F0CFEFE5EDBFE4E0E8
:10010A00EEBFC0E6D1E00C94E1000E940B04B7D028
:10011A0045C00E940B0497D041C00E940B04E2EB39
:10012A00E2BFE0916B01EF5FE0936B01A0916B017D
:10013A00A43690F1BB27E4E6F0E00E949004E09335
:10014A006B01E0916A01EF5FE0936A01A0916A0195
:10015A00AC3310F1BB27ECE3F0E00E949004E0938B
:10016A006A01E0916901EF5FE0936901A091690179
:10017A00AC3390F0BB27ECE3F0E00E949004E093EC
:10018A006901E0916801F0E03196DF01E8E1F0E011
:10019A000E949004E09368010E941904E991EFBF5C
:1001AA00F991E991B991A991999189917991699175
:1001BA00F9901990099018950E94A8013DD0FFCF97
:1001CA00FFCFAA936097E0E0EA93A0E00E9426049A
:1001DA00E8E6F0E0FA93EA93EF890E942C04EA8DAC
:1001EA000E942C04ED8D0E942C04E8A10E942C048C
:1001FA0080E10E9429036496DE010E94CC030C94DC
:10020A002703BA93AA936097E0E0EA93A1E00E94D9
:10021A002604E0E8F0E0FA93EA93EC89FD890E946B
:10022A0078040E94A60484E00E9429032896DE012D
:10023A000E94CC03629608950E9419040E94320417
:10024A00E0DF47D00895B49902C0E5E0E3BFB5996D
:10025A0015C0E3B7E53019F4E0E0E3BF0FC0E3B738
:10026A00E03061F4E0E0E2BFE0936B01E0936A0101
:10027A00E0936901E09368010E9419040895B7990F
:10028A0010C00E94320412971CF4E0E0F0E005C0AE
:10029A00E0916601F09167013197E0936601F0936E
:1002AA006701B39912C00E943204A83EE3E0BE0778
:1002BA001CF0E8EEF3E005C0E0916601F0916701F9
:1002CA003196E0936601F09367010E94320499DF48
:1002DA000895EBE0EA93A1E00E949E03A0E6B1E054
:1002EA000E94CC030895E0E0EABBEBBBE7BBE8BBA6
:1002FA00EFEFE4BBE0E0E5BBE1BBE2BB0895E5E07C
:10030A00E3BFE2EBE2BFE0E0ECBFEFBDE1E0EEBD50
:10031A00E0E0EDBDECBDE7BDE6BDEBBDEABDE9BD84
:10032A00E8BDE1E0E9BF0895EBB7E06EEBBFEAE0B4
:10033A00E5BFE0E0E4BFE0EEEABF78940895A0E10B
:10034A000E94DD030895CFDFDADFEEDFF8DF0895DC
:10035A00BA93AA931A930A93AA81BB8112960E940E
:10036A009E04309759F1AA81BB8114960E949E047B
:10037A008F01309761F00230E0E01E0798F0F80133
:10038A0031978F01AA81BB811496ED93FC93AA81C0
:10039A00BB811296ED91FD913196FE93EE933197C2
:1003AA00AC81A083AA81BB810E949E04FF232AF00C
:1003BA00ED91FD913196FE93EE9306C0AA81BB8121
:1003CA00EFEFFFEFED93FC931981088125960895CD
:1003DA00BA93AA9326970E94620410E0AC85BD8561
:1003EA00E0E0F0E0ED93FC93EA89FB893196EA8B31
:1003FA00FB8B3197E4912E2FE03009F41DC1E12FD8
:10040A00E03039F4253211F411E002C00E943704B9
:10041A0012C1E130A9F4253219F40E9437040AC145
:10042A0012E040E000E02D3211F401E004C12B3269
:10043A0011F44BE200C1203211F440E2FCC002C0C8
:10044A00E23039F450E013E0203311F40068F3C0CD
:10045A0003C0E33009F0EFC0203310F02A3308F06C
:10046A0007C0AAE05A9F502DE22FE0535E0FE3C067
:10047A00E22FE33649F40E943E04E889F989A4810F
:10048A00AA930E944404D6C0E33741F40E943E0472
:10049A000E944A040E9465031E2F0AC0E03761F4D5
:1004AA000E943E040E944A040E9471031E2F0860A3
:1004BA0002600F7730E03CC0E43611F0E93611F4FF
:1004CA00046002C0E53731F4E4E5F0E0EE83FF832F
:1004DA0015E00CC0E83511F4086003C0E83709F0EC
:1004EA00A9C0EEE5F0E0EE83FF8314E002FF17C037
:1004FA000E943E04A889B9891496ED91FD91EA8774
:10050A00FB87AB85AA232AF40E947404EA87FB8737
:10051A004DE2403011F01F5F01C00B7F09C00E94FD
:10052A003E04A889B98914960E949E04EA87FB872B
:10053A0000FD11C0151778F407FF08C002FF04C0B8
:10054A000B7F242F115001C020E301C020E20E943A
:10055A0037045150EFCF312F01FF17C03030A1F0CF
:10056A0003FF06C0EE81FF812591EE83FF8305C05C
:10057A00AE81BF812D91AE83BF830E943704503074
:10058A0009F051503150EACF4BC020E3EE81FF8190
:10059A000E94A204E887F987EE81FF813296EE83F2
:1005AA00FF83E885F985AA85BB85AE17BF0750F09A
:1005BA002F5FA885B985EA85FB85EA1BFB0BEA87CD
:1005CA00FB87EFCF2A3328F003FF02C0295F01C05F
:1005DA00295D04FD1AC0213320F4A885B985119735
:1005EA0009F409C0531710F000FF01C013C020E23C
:1005FA0007FF0BC020E3006102FF07C00B7F4A938D
:10060A000E944404503009F051500E94370450307F
:10061A0009F051503150A885B985129708F0B5CF25
:10062A0000FF08C0503031F05150E0E2EA930E94D6
:10063A004404F8CF10E0D8CEAC85BD85ED91FD918C
:10064A000E94690464960895FF92F82E26970E94E4
:10065A006404DE011C960E9470040E949E04309776
:10066A0019F4EFEFFFEF27C0DE0116960E9470041F
:10067A008D01DE011C960E947004ED91FD91EE83BE
:10068A00FF83E0E0E887E987DE011A960E9470049A
:10069A00ED91FD91FA93EA931A930A93EDEAF1E048
:1006AA00FA93EA93DE011A9693DE9F01AE81BF8127
:1006BA00E0E0EC93F9010E946B042A96FF900895FA
:1006CA00BA93AA93A991B991EE27FF276D91662350
:1006DA0011F03196FBCF0895BA93AA93AA27BB27A4
:1006EA00E991F9910590002011F01196FBCFFD01D7
:1006FA000895AA93E5B3EF70AE2FE881E07FEA2B65
:10070A00E5BB8DE08A95F1F7AA9A8DE08A95F1F713
:10071A00AA988DE08A95F1F777C0AA93A881E9DFB4
:10072A00E881E295E883A881E4DF85E88A95F1F714
:10073A006BC0AA93E881F0E0E059FE4FE081A981FD
:10074A00AE0FEBDF5980488022960895A2E00E94FE
:10075A005404ACE0E2DFA1E00E945404E0E04E2E33
:10076A005E2E0895AA93A881AA3011F0571448F072
:10077A00E0E0EA934394A42DDCDFA881AA3009F4CF
:10078A0043C05394A89AA881C8DFA8983DC0BA93D9
:10079A00AA931A93A981BA81ED91A983BA831E2FCC
:1007AA00E03019F0A12FDEDFF5CF188123960895E6
:1007BA00AA93E4B3E06FE4BBA29AA09AA19AAA987A
:1007CA00A898A9987880E881E058E0937201E881B6
:1007DA00E054E0937301A4E1B0E00E94AB040E94EC
:1007EA005A040E945A040E945A04A0E282DF88EC4A
:1007FA0090E00197F1F7A8E290DFA4E08EDFA5E888
:10080A008CDFA6E08ADFA2DF219608950A921A9267
:10081A00FA926A937A938A939A93AA93BA93EA93E7
:10082A00FA93EFB7EA930895E0916801EA93E091A9
:10083A006901EA93E0916A01EA93A0916B010C9431
:10084A00E6000E949E03FE01FA93EA930895FF27A9
:10085A00662777270E94A6040895A0916601B091A1
:10086A00670108952A93AD85BE85EF85F8890995B4
:10087A000895E889F9893497E88BF98B0895AD854D
:10088A00BE85EF85F88909950895A889B9891496CE
:10089A00ED91FD91EE83FF83AE81BF8108950E94A1
:1008AA009203A3E0B0E00C94AB04A0E30E947E03A1
:1008BA0088EC90E00197F1F708955A934A933A9396
:1008CA002A931A930A9308955D814C813B812A8168
:1008DA001981088108950024AF0DB01D0895F1957E
:1008EA00E195F04008956F2F660F660B762F0895F5
:1008FA000024112490E1AA0FBB1F001C111C0E1A20
:10090A001F0A18F40E0E1F1E01C0A1609A9599F7CE
:10091A00FD01D0010895E894B7FF04C0B195A195EF
:10092A00B0406894F7FDDBDFE3DFFD010EF4D7DFAB
:10093A000895ED91FC91119708950590F491E02D99
:10094A0008957A936A93FA93EA930895109639F080
:10095A00A89580ED97E00197F1F71197C9F70895E7
:00000001FF
