:020000000C945E
:1000020033000C9400000C9400000C9400000C943B
:1000120000000C9400000C9400000C9400000C945E
:1000220000000C9400000C9400000C9400000C944E
:1000320000000C9400000C9400000C9400000C943E
:1000420000000C9400000C9400000C9400000C942E
:1000520000003F065B4F666D7D077F6F0A006001FF
:1000620054000000F894EE27ECBBF1E0FBBFEBBFBD
:10007200E5BF8DE0A2E0BB27ED938A95E9F780E02A
:1000820094E0A0E6ED930197E9F7EEE5F0E08591C3
:100092009591009761F0A591B59105901590BF01DA
:1000A200F00105900D920197E1F7FB01F0CFEFE52A
:1000B200EDBFE4E0EEBFC0E6D1E00C946000E4E006
:1000C200F0E0FA93EA93A4EFB1E064D0A8EEB3E0D3
:1000D2000E947F0172D0A8EEB3E00E947F01E5E8A2
:1000E200FAE1FA93EA93E3E0EA93A4E06FD0E7CF70
:1000F200FFCF1A930A930A2FE02FF0E0E130A0E03D
:10010200FA0721F4E0E0EABB19B317C0E230A0E03D
:10011200FA0721F4E0E0E7BB16B30FC0E330A0E03A
:10012200FA0721F4E0E0E4BB13B307C0E430A0E037
:10013200FA0719F4E0E0E1BB10B3E12F099119913C
:1001420008951A930A931A2F0A81E12FF0E0E13001
:10015200A0E0FA0721F4EFEFEABB0BBB17C0E230D5
:10016200A0E0FA0721F4EFEFE7BB08BB0FC0E330D2
:10017200A0E0FA0721F4EFEFE4BB05BB07C0E430CF
:10018200A0E0FA0719F4EFEFE1BB02BB1981088185
:10019200239608956DD09D014E815F8100E010E0AD
:1001A200041715073CF4E0E042D0EFEF40D00F5FB8
:1001B2001F4FF6CF64D0289608951A93A1E099DFD5
:1001C2001E2F1A93A2E0BDDF19910895AA932297D8
:1001D2004FD00AE010E02A853B852FD0EE8333D042
:1001E200EF8331D04E2F2FD05E2FD901EAE0F0E01D
:1001F2000E945E019F010024001601069CF4EEEFAE
:1002020029D0EE812AD0EDEF25D0EF8126D0EBEF79
:1002120021D0E42F22D0E7EF1DD0E52F1ED00150D0
:100222001040E9CFEFEF16D02AD02C960895EA932A
:10023200A2E087DFD9010C947F01D901EAE0F0E066
:100242000E9463010895D901EAE0F0E00E945E0194
:100252009F01F3CFEA93A98574CFF0E0E05AFE4FF5
:10026200E081EA93AA856DDFA2E3B0E00C947F01FE
:100272005A934A933A932A931A930A9308955D8163
:100282004C813B812A81198108810895F195E1957C
:10029200F04008950024112490E1AA0FBB1F001C16
:1002A200111C0E1A1F0A18F40E0E1F1E01C0A160A7
:1002B2009A9599F7FD01D001089512D0EBDF0EF463
:1002C200E5DF0895E894B7FF04C0B195A195B04069
:1002D2006894F7FDDBDFDEDFFD010EF4D7DF089562
:1002E200E894F7FF02C0D2DF6894B7FF06C0B19569
:1002F200A195B04000F8039400FA0895109639F0E1
:10030200A89580ED97E00197F1F71197C9F7089545
:00000001FF
