:100000000C942A000C943F000C943F000C943F0089
:100010000C943F000C94EE000C943F000C943F00B5
:100020000C943F000C94CA000C943F000C94A60062
:100030000C943F000C943F000C943F000C943F0044
:100040000C943F000C943F000C943F000C943F0034
:100050000C943F0011241FBECFE5D8E0DEBFCDBF1A
:1000600010E0A0E6B0E0E2E2F2E002C005900D92FE
:10007000AA3BB107D9F70E9463000C940F010C94BE
:10008000000085BB90989198929A0000929881E226
:100090008A95F1F700000895DC019C91992391F075
:1000A00020E095BB909A9198929A0000929881E2F4
:1000B0008A95F1F700002F5FFD01E20FF11D90819D
:1000C0009111EFCF089590EE92BF81E083BF20EEB3
:1000D0003FEF3DBD2CBD1FBC8EBD94BD85BD89BF0E
:1000E0008FEF84BB81BB929883EF91E00197F1F78A
:1000F00000C0000088E30E9441008EE00E944100A1
:1001000081E00E94410083EF91E00197F1F700C088
:10011000000086E00E94410080E885BB909891989D
:10012000929A0000929892E49A95F1F700C080E6C6
:1001300090E00E944C002FE78AE196E02150804039
:100140009040E1F700C000007894FFCF1F920F921B
:100150000FB60F92112480E885BB90989198929ADF
:100160000000929822E42A95F1F700C081E00E94F5
:10017000410081E790E00E944C008FE79AE126E081
:10018000815090402040E1F700C0000085E089BF29
:100190007894FFCF1F920F920FB60F92112480E830
:1001A00085BB90989198929A0000929822E42A95A3
:1001B000F1F700C081E00E94410089E890E00E94D0
:1001C0004C008FE79AE126E0815090402040E1F713
:1001D00000C0000085E489BF7894FFCF1F920F9282
:1001E0000FB60F92112480E885BB90989198929A4F
:1001F0000000929822E42A95F1F700C081E00E9465
:10020000410081EA90E00E944C008FE79AE126E0ED
:10021000815090402040E1F700C00000FFCFF894EB
:02022000FFCF0E
:100222000A696E697469616C697A696E672E2E2E2D
:10023200000A696E7465727275707420302074726F
:100242006967676572656421000A696E7465727216
:1002520075707420312074726967676572656421F4
:10026200000A696E7465727275707420322074723D
:0A027200696767657265642100008A
:00000001FF
