:100000000C9452000C94C5000C94C6000C94000093
:100010000C9400000C9400000C9400000C94000060
:100020000C9400000C94CB000C9400000C94000085
:100030000C9400000C9400000C9400000C94000040
:100040000C9400000C9400000C94CA000C94000066
:100050000C9400001027E80364000A00010000105F
:100060000001100001000000000020202530326453
:100070003A253032643A253032643A2530326420F1
:10008000200001002D4E414E00494E46000080C028
:1000900004000400660001006001820002006401A7
:1000A0008E000000F894EE27ECBBF1E0FBBFEBBF45
:1000B000E5BF8DE0A2E0BB27ED938A95E9F780E0EC
:1000C00094E0A0E6ED930197E9F7E0E9F0E085918F
:1000D0009591009761F0A591B59105901590BF019C
:1000E000F00105900D920197E1F7FB01F0CFEFE5EC
:1000F000EDBFE4E0EEBFC0E6D1E00C9409016097EB
:100100000E94E0031A2F0C893D892E89E0E0EA93D2
:10011000A0E00E942703FE013496FA93EA93EAE6F0
:10012000F0E0FA93EA93E22F0E949903E32F0E94F2
:100130009903E02F0E949903E12F0E94990380E127
:100140000E94B60264960E943903DE0114960E9452
:1001500059030E94E70367960895B49902C0E5E049
:10016000E3BFB59911C0E3B7E53019F4E0E0E3BFB0
:100170000BC0E3B7E03041F4E0E0E2BF5524442493
:10018000772466240E949F03089518950E94A50372
:10019000E4DF31C018950E94A503E2EBE2BF53945F
:1001A000E4E65E1630F14394A52DBB27E4E6F0E0CB
:1001B0000E940B045E2EECE34E16D8F07394A42D2F
:1001C000BB27ECE3F0E00E940B044E2EECE37E161E
:1001D00080F0E62DF0E03196DF01E8E1F0E00E94EA
:1001E0000B046E2EA72DBB27ECE3F0E00E940B045E
:1001F0007E2E0E949F03E991EFBFF991E991B99199
:10020000A9919991899179916991F99019900990A1
:100210001895E0E0EABBEBBBE7BBE8BBEFEFE4BB64
:10022000E0E0E5BBE1BBE2BBE5E0E3BFE2EBE2BF60
:10023000E0E0ECBFEFBDEEBDEDBDECBDE7BDE6BD62
:10024000EBBDEABDE9BDE8BDE2BDE5BDE4BDE3BD92
:10025000E1E0E9BFEBB7E06EEBBFEAE0E5BFE0E06D
:10026000E4BFE0EEEABFE0E0EAB9E0E8E8B9E0E0E8
:10027000E0BFE6B9EDB9E6BFA0E10E946A03789459
:10028000FFCFFFCF0E94DE039D015E8112960E9488
:100290001904309731F1D90114960E9419048F0185
:1002A000309759F00230E0E01E0780F0F8013197F6
:1002B0008F01D9011496ED93FC93D9011296ED911B
:1002C000FD913196FE93EE9331975083D9010E94B0
:1002D0001904FF232AF0ED91FD913196FE93EE93E0
:1002E00005C0D901EFEFFFEFED93FC930E94E5030A
:1002F00027960895BA93AA9326970E94DE0310E0EA
:10030000AC85BD85E0E0F0E0ED93FC93EA89FB89E4
:100310003196EA8BFB8B3197E4912E2FE03009F474
:100320001DC1E12FE03039F4253211F411E002C093
:100330000E94B30312C1E130A9F4253219F40E94DE
:10034000B3030AC112E040E000E02D3211F401E0F5
:1003500004C12B3211F44BE200C1203211F440E20F
:10036000FCC002C0E23039F450E013E0203311F455
:100370000068F3C003C0E33009F0EFC0203310F091
:100380002A3308F007C0AAE05A9F502DE22FE0530D
:100390005E0FE3C0E22FE33649F40E94BA03E88916
:1003A000F989A481AA930E94C003D6C0E33741F41F
:1003B0000E94BA030E94C6030E94EC021E2F0AC0CC
:1003C000E03761F40E94BA030E94C6030E94F8025B
:1003D0001E2F086002600F7730E03CC0E43611F059
:1003E000E93611F4046002C0E53731F4E4E5F0E0E9
:1003F000EE83FF8315E00CC0E83511F4086003C0FC
:10040000E83709F0A9C0EEE5F0E0EE83FF8314E0E1
:1004100002FF17C00E94BA03A889B9891496ED910A
:10042000FD91EA87FB87AB85AA232AF40E94F40397
:10043000EA87FB874DE2403011F01F5F01C00B7F60
:1004400009C00E94BA03A889B98914960E941904A8
:10045000EA87FB8700FD11C0151778F407FF08C075
:1004600002FF04C00B7F242F115001C020E301C004
:1004700020E20E94B3035150EFCF312F01FF17C08C
:100480003030A1F003FF06C0EE81FF812591EE839D
:10049000FF8305C0AE81BF812D91AE83BF830E94D3
:1004A000B303503009F051503150EACF4BC020E334
:1004B000EE81FF810E941D04E887F987EE81FF81AC
:1004C0003296EE83FF83E885F985AA85BB85AE1752
:1004D000BF0750F02F5FA885B985EA85FB85EA1B29
:1004E000FB0BEA87FB87EFCF2A3328F003FF02C01C
:1004F000295F01C0295D04FD1AC0213320F4A885BD
:10050000B985119709F409C0531710F000FF01C015
:1005100013C020E207FF0BC020E3006102FF07C009
:100520000B7F4A930E94C003503009F051500E9443
:10053000B303503009F051503150A885B985129756
:1005400008F0B5CF00FF08C0503031F05150E0E264
:10055000EA930E94C003F8CF10E0D8CEAC85BD85E9
:10056000ED91FD910E94E50364960895FF92F82EA7
:1005700026970E94DE03FE010E94EC034685578504
:10058000042E052A19F4EFEFFFEF21C0DE011896C3
:100590000E94F0038D0148875987E0E0EA87EB87E6
:1005A000DE011C960E94F003ED91FD91FA93EA930F
:1005B0001A930A93E2E4F1E0FA93EA93DE011C96BF
:1005C00099DE9F01A885B985E0E0EC93F9010E94CE
:1005D000E5032C96FF900895BA93AA93A991B99137
:1005E000EE27FF276D91662311F03196FBCF08951A
:1005F000BA93AA93AA27BB27E991F9910590002005
:1006000011F01196FBCFFD0108951A931A2FEBB349
:10061000EF70AE2FE12FE07FEA2BEBBB8DE08A95E8
:10062000F1F7D99A8DE08A95F1F7D9988DE08A95FE
:10063000F1F77DC0AA93A881E8DFE881E295E8831D
:10064000A881E3DF85E88A95F1F7219608951A934A
:100650000A931A2F0A81E12FF0E0EC59FE4FE08156
:10066000E00FAE2FE7DF902E812E198108812396AF
:100670000895A2E00E94D003ACE0DCDFA1E00E947C
:10068000D003E0E08E2E9E2E08951A931A2F1A3072
:1006900011F09B1440F0E0E0EA938394A82DD7DF9B
:1006A0001A3009F444C09394D89AA12FC3DFD89884
:1006B0003EC00E94E0039D01D9012F5F3F4FEC91A6
:1006C0001E2FE03019F0A12FE0DFF6CF0E94E703E4
:1006D000249608951A931A2FEAB3E06FEABBD19AD1
:1006E000D09AD39AD998D898DB98B12EE12FE058B8
:1006F000E0936601E12FE054E0936701A4E1B0E0EC
:100700000E9426040E94D6030E94D6030E94D603AC
:10071000A0E27BDF88EC90E00197F1F7A8E28ADFA6
:10072000A4E088DFA5E886DFA6E084DFA2DF1991D8
:100730000895FF27662777270E94210408956A926B
:100740007A924A92A52D0C947F000A921A92FA92FC
:100750006A937A938A939A93AA93BA93EA93FA93B1
:10076000EFB7EA9308952A93AD85BE85EF85F889A2
:1007700009950895E889F9893497E88BF98B0895EC
:10078000AD85BE85EF85F88909950895A889B98951
:100790001496ED91FD91EE83FF83AE81BF810895A4
:1007A0000E941A03A3E0B0E00C942604A0E30E9488
:1007B000050388EC90E00197F1F708955A934A9366
:1007C0003A932A931A930A9308955D814C813B8151
:1007D0002A811981088108950024EF0DF01D0895E4
:1007E0000024AF0DB01D0895F195E195F0400895F6
:1007F0000024112490E1AA0FBB1F001C111C0E1A2B
:100800001F0A18F40E0E1F1E01C0A1609A9599F7D9
:10081000FD01D0010895E894B7FF04C0B195A195FA
:10082000B0406894F7FDE0DFE3DFFD010EF4DCDFAC
:100830000895ED91FC91119708950590F491E02DA4
:1008400008957A936A93FA93EA930895109639F08B
:10085000A89580ED97E00197F1F71197C9F70895F2
:00000001FF
