:0E0000000C942D010C9400000C9400000C9444
:10000E0000000C9400000C9400000C9400000C9462
:10001E0000000C9400000C9400000C9400000C9452
:10002E00AC010C9400000C9401020C9400000C9492
:10003E0000000C9400000C9400000C9400000C9432
:10004E0000000C9400001027E80364000A00010071
:10005E000010000110000100000000000000000070
:10006E0000005061727420322069732072756E6EBA
:10007E00696E67210D0A00456E74657220796F7581
:10008E00722066756C6C6E616D653A200D0A0025E6
:10009E00730025730D0A005061727420322069734B
:1000AE0020656E64696E67210D0A005061727420BE
:1000BE00332069732072756E6E696E67210D0A00AA
:1000CE006E002C015802B0046009C0128025403821
:1000DE00004B0096C0DA00E100C2000001000200F1
:1000EE0003000400050006000700080009000D0AC1
:1000FE0025640D0A004C43442044656C65746564A8
:10010E0021004D6963726F70726F636573736F72E6
:10011E000A6C616200454E44206F662074686973F4
:10012E0020706172740050617274203320697320E4
:10013E00656E64696E67210D0A00696E70757420B4
:10014E006C65747465722069732027005061727437
:10015E0020342069732072756E6E696E67210D0AE8
:10016E0000496E636F7272656374206672616D65AD
:10017E002073697A65210A546865206672616D651F
:10018E00206D757374206265203520696E74656705
:10019E0065727300496E636F727265637420667266
:1001AE00616D652073697A65210D0A546865206654
:1001BE0072616D65206D75737420626520352069DE
:1001CE006E7465676572730D0A00546865206672F9
:1001DE00616D6520697320636F727265637400547C
:1001EE006865206672616D6520697320636F727237
:1001FE006563740D0A00202020202020202020205E
:10020E0020202020202080C001000200660008006F
:10021E00040068001A007F02CE000D006001030189
:10022E0013006D01100111008001230112009101D4
:10023E0048010200A30158013300A5016F0115000A
:10024E00D801D8010200990214020000F894EE279A
:10025E00ECBBF1E0FBBFEBBFE5BF8DE0A2E0BB273F
:10026E00ED938A95E9F780E094E0A0E6ED9301978F
:10027E00E9F7E6E1F2E085919591009761F0A5919D
:10028E00B59105901590BF01F00105900D92019763
:10029E00E1F7FB01F0CFEFE5EDBFE4E0EEBFC0E626
:1002AE00D1E00C945A01EF97AB97EEE3E883E98324
:1002BE00E0E0EA83ECE3EB83EC83E0E0ED830E9485
:1002CE000703A0E8B5E2C8D078940E941C03E0E7CB
:1002DE00F0E00E94EB06E5E8F0E00E94EB060E94DB
:1002EE00F206DE0115960E94A206EDE9F0E00E94EC
:1002FE00F7060E94740626960E94F206ADEEB1E055
:10030E000E9491060E94F206DE0112960E9491064C
:10031E000E945003DE0116960E947303E0EAF0E09D
:10032E000E94F7060E94FC042696E5EAF0E00E9481
:10033E00EB06E9EBF0E00E94EB06E3E0F0E0E09381
:10034E006D02F0936E02FFCFFFCF0A921A92FA92CD
:10035E006A937A938A939A93AA93BA93EA93FA93A7
:10036E00EFB7EA931A930A931BB10CB1E12FEC711C
:10037E0089F4E52D5394F0E0E159FD4F0083E8E058
:10038E00E51509F455247394E8E0E71519F477247C
:10039E00689420F8A0916D02B0916E02139709F443
:1003AE009BD0A0916D02B0916E02149709F4F2D019
:1003BE0009911991E991EFBFF991E991B991A9913B
:1003CE009991899179916991F9901990099018955F
:1003DE001A937720F1F3E42D4394F0E0E159FD4FA9
:1003EE001081E8E0E41509F44424F8947A947894A2
:1003FE00E12FCEC0EA93FA93EFB7EA93882061F02B
:10040E008A94E92D9394F0E0E958FD4FE081ECB920
:10041E00E8E0E91509F49924E991EFBFF991E99122
:10042E001895AA93E8E0E815E9F3F894882011F4FA
:10043E005D990DC0E62D6394F0E0E958FD4FA8815B
:10044E00A083E8E0E61509F46624839402C0E881EF
:10045E00ECB978940C94B003BA93AA930E94520705
:10046E0000E010E00D30E0E01E078CF4F801AFE77D
:10047E00B2E0EE0FFF1FAE0FBF1FED91FD91AC81ED
:10048E00BD81EA17FB0719F00F5F1F4FEBCFEDE0B1
:10049E00F0E0E017F10739F4E0E0E0BDE3E3E9B99D
:1004AE000E945907ABC0EC81FD810E947607A0E146
:1004BE00B0E080E090E00E94A807A0E0B2E18AE7F9
:1004CE0090E00E94D10731979F01E070E0BDE22FCE
:1004DE00E9B90E94590792C01A937ADF1E2F103382
:1004EE0010F01A3308F014C0ECEFF0E0FA93EA9330
:1004FE00E12FF0E0F097AAE0B0E00E94A3070E947F
:10050E0076070E94F80784E00E94FC04269640C0FD
:10051E00143611F0143459F40E945003A0E6B1E0E1
:10052E000E947303E0E0F1E00E94EB0631C0183642
:10053E0011F0183439F40E945003ADE6B1E00E9478
:10054E00730326C0153611F0153459F40E9450036A
:10055E00A0E8B1E00E947303E4E3F1E00E94EB0631
:10056E0017C00E945003A1E9B1E00E947303A12FAE
:10057E000E945C03A3EAB1E00E947303EAE5F1E096
:10058E000E94EB06E4E0F0E0E0936D02F0936E0261
:10059E00199108950E9450071BDF1E2FF501E3519C
:1005AE00FE4F1083F50131965F01193229F5ADEE3C
:1005BE00B1E0AA0DBB1DE0E0EC93ADEEB1E00E9400
:1005CE00AF06E530A0E0FA0749F00E945003A5EA15
:1005DE00B1E00E947303E2EAF1E008C00E9450030A
:1005EE00A8EDB1E00E947303EDEEF1E0FA93EA9309
:1005FE0080E00E94FC0422960E94570726960895DA
:10060E00E0E0EABBEBBBE7BBE8BBE4BBE5BBE1BBB1
:10061E00E2BBEBB9E8E1EAB9E6E8E0BDE0E0E0BD57
:10062E00E3E3E9B9A0E168D00895E0E0EBB9E8EDC5
:10063E00EAB9E6E8E0BD0895AA93E5B3EF70AE2FF0
:10064E00E881E07FEA2BE5BB8DE08A95F1F7AA9A67
:10065E008DE08A95F1F7AA988DE08A95F1F779C029
:10066E00AA93A881E9DFE881E295E883A881E4DF17
:10067E0085E88A95F1F76DC0AA93E881F0E0E75618
:10068E00FD4FE081A981AE0FEBDFD980C8802296A5
:10069E000895A2E00E940107ACE0E2DFA1E00E9413
:1006AE000107E0E0CE2EDE2E0895AA93A881AA308F
:1006BE0021F0E0919D02DE1648F0E0E0EA93C3944B
:1006CE00AC2DDADFA881AA3009F443C0D394A89ADE
:1006DE00A881C6DFA8983DC0BA93AA931A93A981A0
:1006EE00BA81ED91A983BA831E2FE03019F0A12FA4
:1006FE00DCDFF5CF18813BC0AA93E4B3E06FE4BB17
:10070E00A29AA09AA19AAA98A898A998E881E0938B
:10071E009D02E058E0939B02E881E054E0939C0236
:10072E00A4E1B0E00E94FD070E9407070E940707A0
:10073E000E940707A0E280DF88EC90E00197F1F7B6
:10074E00A8E28EDFA4E08CDFA5E88ADFA6E088DFD2
:10075E00A0DF21960895BA93AA93AA810E94180247
:10076E00A881B981ED91FD913196FE93EE9323967A
:10077E000895BA93AA9326970E94500710E0AC856D
:10078E00BD85E0E0F0E0ED93FC93EA89FB893196BC
:10079E00EA8BFB8B3197E4912E2FE03009F41DC1CB
:1007AE00E12FE03039F4253211F411E002C00E943D
:1007BE000F0712C1E130A9F4253219F40E940F0778
:1007CE000AC112E040E000E02D3211F401E004C154
:1007DE002B3211F44BE200C1203211F440E2FCC086
:1007EE0002C0E23039F450E013E0203311F4006817
:1007FE00F3C003C0E33009F0EFC0203310F02A330A
:10080E0008F007C0AAE05A9F502DE22FE0535E0F6A
:10081E00E3C0E22FE33649F40E941607E889F9890E
:10082E00A481AA930E941C07D6C0E33741F40E940C
:10083E0016070E9422070E94AF061E2F0AC0E0373D
:10084E0061F40E9416070E9422070E94BB061E2F0B
:10085E00086002600F7730E03CC0E43611F0E936F4
:10086E0011F4046002C0E53731F4E4E5F0E0EE8304
:10087E00FF8315E00CC0E83511F4086003C0E837BB
:10088E0009F0A9C0EEE5F0E0EE83FF8314E002FF6D
:10089E0017C00E941607A889B9891496ED91FD918B
:1008AE00EA87FB87AB85AA232AF40E946207EA87B0
:1008BE00FB874DE2403011F01F5F01C00B7F09C076
:1008CE000E941607A889B98914960E94F007EA8734
:1008DE00FB8700FD11C0151778F407FF08C002FF53
:1008EE0004C00B7F242F115001C020E301C020E271
:1008FE000E940F075150EFCF312F01FF17C030303C
:10090E00A1F003FF06C0EE81FF812591EE83FF83E8
:10091E0005C0AE81BF812D91AE83BF830E940F07AC
:10092E00503009F051503150EACF4BC020E3EE81E8
:10093E00FF810E94F407E887F987EE81FF813296E6
:10094E00EE83FF83E885F985AA85BB85AE17BF07C1
:10095E0050F02F5FA885B985EA85FB85EA1BFB0B56
:10096E00EA87FB87EFCF2A3328F003FF02C0295F07
:10097E0001C0295D04FD1AC0213320F4A885B98574
:10098E00119709F409C0531710F000FF01C013C0EE
:10099E0020E207FF0BC020E3006102FF07C00B7FC0
:1009AE004A930E941C07503009F051500E940F07C5
:1009BE00503009F051503150A885B985129708F082
:1009CE00B5CF00FF08C0503031F05150E0E2EA934D
:1009DE000E941C07F8CF10E0D8CEAC85BD85ED91F6
:1009EE00FD910E94570764960895FF92F82E269760
:1009FE001A930A93DE0114960E945E078D01E0E0C1
:100A0E00EC83ED83EE83EF83DE0118960E942C07B4
:100A1E00E2EBF3E0FA93EA93DE011896AADE19816F
:100A2E0008812896FF900895BA93AA931A93A981E4
:100A3E00BA81E0E0EC93AB81BC81EC911E2FE030EB
:100A4E0019F0E0E0EC9303C00E94EF011E2FE12F9E
:100A5E00188125960895FF92BA93AA9324970E941F
:100A6E005007E0E0F0E0E887F9874E2FE889F98932
:100A7E003196E88BF98B3197E4913E2FE03009F4F3
:100A8E0025C10E943507C1F0EDB7FEB7FA93EA9380
:100A9E004F930E943A074F913E2FE03019F00E947B
:100AAE00350709F407C00E9440071CF4EFEFFFEF73
:100ABE000FC1EACF432F09C1353209F0EEC050E025
:100ACE00E889F9893591E88BF98B303310F03A3398
:100ADE0008F007C0AAE05A9F502DE32FE0535E0F97
:100AEE00EFCF303009F4F2C0EDB7FEB7FA93EA93C8
:100AFE004F930E943A074F912E2FAE2F0E94D10690
:100B0E00E03039F00E9440071CF4EFEFFFEFE0C039
:100B1E00EBCF203009F4D1C0422F503009F45FEFF3
:100B2E00E32FE33699F40E944507EDB7FEB7FA932B
:100B3E00EA934F930E943A074F91D801EC930E948B
:100B4E0040071CF4EFEFFFEFC3C0A1C0E33741F540
:100B5E000E944507E52F5150E030F1F0EDB7FEB79A
:100B6E00FA93EA934F930E943A074F913E2FE0304B
:100B7E0019F00E94350739F00E9440071CF4EFEF80
:100B8E00FFEFA6C009C01F930F930F5F1F4FE32FF8
:100B9E00AF91BF91EC93DECFD801E0E0EC9377C03C
:100BAE006894F1F8E894F2F8E32FE43611F0E936A0
:100BBE0019F4E894F1F802C0E53711F42AE008C000
:100BCE00E83711F420E104C0E53209F466C07EC0B6
:100BDE00E0E0EE83EF836894F0F8E52F5150E030BB
:100BEE0009F446C0EDB7FEB7FA93EA934F930E940D
:100BFE003A074F913E2FE13238F40E9440071CF421
:100C0E00EFEFFFEF65C017C0F1FC08C06894F1F874
:100C1E003D3211F4F2F8E1CF3B32F9F2203131F4EA
:100C2E00A32F0E94DC06E03031F009C0A32F0E94F2
:100C3E00C806E03021F4F0FC49C0432F19C031360C
:100C4E0010F0375505C0313410F0375301C0305312
:100C5E00E22FAE81BF81F0E00E947B07DF01E32F20
:100C6E00F0E0EA0FFB1FEE83FF83E894F0F8B5CFB8
:100C7E000E944507F2FE06C0EE81FF810E946207C8
:100C8E00EE83FF83EE81FF81D801ED93FC93E8851F
:100C9E00F9853196E887F98718C0EDB7FEB7FA9354
:100CAE00EA934F930E943A074F91E31771F00E9417
:100CBE0040071CF4EFEFFFEF0BC0E885F985309786
:100CCE0019F4EFEFFFEF04C001C0D0CEE885F9852F
:100CDE000E9457076296FF900895FF92F82E239771
:100CEE001A930A93DE0111960E945E078D01E0E0D1
:100CFE00EB83EC83DE0115960E942C07EBE1F5E009
:100D0E00FA93EA93DE011896A6DE198108812596DC
:100D1E00FF900895BA93AA93E991F991A991B99187
:100D2E00CD016D916623E9F7119761916D9366235D
:100D3E00E1F7FC010895BA93AA93E991F991A9916B
:100D4E00B991CD0161916D936623E1F7FC01089590
:100D5E00BA93AA93A991B991EE27FF276D916623B5
:100D6E0011F03196FBCF0895BA93AA93AA27BB2709
:100D7E00E991F9910590002011F01196FBCFFD013C
:100D8E000895AA93E1E0F991F03310F0FA3308F0E8
:100D9E00EE270895AA93E1E0F991F03229F0F930A7
:100DAE0010F0FE3008F0EE270895AA93E1E0F991D5
:100DBE00F05340F0FA3038F0FF75F750FA3010F07B
:100DCE00F03108F0EE270895FA93EA9380E00E943E
:100DDE00FC0422960895FE013696FA93EA9308953E
:100DEE00FA93EA93EDEEF1E0662777270E94F80773
:100DFE0084E008950E943703A3E0B0E00C94FD0751
:100E0E00A0E30E94230388EC90E00197F1F7089588
:100E1E002A93AD85BE85EF85F88909950895E889F1
:100E2E00F9893497E88BF98B0895AD85BE85EF85EA
:100E3E00F88909950895A889B9891496ED91FD91BF
:100E4E00EE83FF83AE81BF8108950E945E07ED9110
:100E5E00FD91FA93EA931A930A930895A32F0E9491
:100E6E00D106E0300895AC85BD85EE85FF850995E8
:100E7E000895AA85BB85AC91A0300895EE85FF85B7
:100E8E003497EE87FF87AE85BF8514960D911C9122
:100E9E0008955A934A933A932A931A930A9308956C
:100EAE005D814C813B812A8119810881089500243E
:100EBE00AF0DB01D0895F195E195F0400895F095B0
:100ECE0060957095E195FF4F6F4F7F4F0895B095E8
:100EDE0080959095A195BF4F8F4F9F4F08956F2F7F
:100EEE00660F660B762F0895FA9FF02DEB9FF00D8F
:100EFE00EA9FE02DF10D08957A9F702D6B9F700D76
:100F0E00F89F700DE99F700D6A9F602D710DFB9F0C
:100F1E00600D711DE89F600D711D8827FA9FF02DE1
:100F2E00610D781FEB9FF00D611D781FEA9FE02D7C
:100F3E00F10D681F781F089532D0D6DF0EF4BBDF97
:100F4E0008953BD0D9DF0EF4BADF08953F934F9347
:100F5E005F9300241124A00130E2AA0FBB1F881F4B
:100F6E00991F001C111C441F551F0E1A1F0A460BF9
:100F7E00570B28F40E0E1F1E461F571F01C0A160EF
:100F8E003A9559F7FD01BC01D001CA015F914F910D
:100F9E003F91089512D0DADF0EF491DF0895E894B0
:100FAE00F7FF02C088DF6894B7FF06C0B195A19520
:100FBE00B04000F8039400FA0895E89477FF02C059
:100FCE007EDF689497FF04C082DF00F8039400FA76
:100FDE000895ED91FC91119708950590F491E02DEF
:100FEE0008957A936A93FA93EA930895109639F0D6
:100FFE00A89580ED97E00197F1F71197C9F708953D
:00000001FF
