:0A0000000C943C000C9400000C94DA
:10000A0000000C9400000C9400000C9400000C9466
:10001A0000000C9400000C9400000C9400000C9456
:10002A0000000C9400000C9400000C9400000C9446
:10003A0000000C9400000C9400000C9400000C9436
:10004A0000000C9400000C9400001027E8036400E0
:10005A000A00010000100001100001003F065B4F7A
:10006A00666D7D077F6F0A00600166000000F894E4
:10007A00EE27ECBBF1E0FBBFEBBFE5BF8DE0A2E0F2
:10008A00BB27ED938A95E9F780E094E0A0E6ED932B
:10009A000197E9F7E0E7F0E085919591009761F023
:1000AA00A591B59105901590BF01F00105900D92AB
:1000BA000197E1F7FB01F0CFEFE5EDBFE4E0EEBF1A
:1000CA00C0E6D1E00C946900E0E0EABBEBBBEFEFDD
:1000DA00E7BBE0E0E8BBEFEFE4BBE0E0E5BBEFE065
:1000EA00E1BBE0E0E2BBE3BFE2BFECBFEFBDEEBDC8
:1000FA00EDBDECBDE7BDE6BDEBBDEABDE9BDE8BDC2
:10010A00E2BDE5BDE4BDE3BDE9BFE5BFE4BFEAB9D1
:10011A00E0E8E8B9E0E0E0BFE6B9EDB9E6BFEABB7E
:10012A00EFEFE7BBE4BBEFE0E1BB13D00E9488012D
:10013A002AD00E9488013ED00E94880141D00E94A4
:10014A00880190D00E948801D1D00E948801EDCF09
:10015A00FFCF1A930A9300E010E000E010E00430A9
:10016A00E0E01E077CF4EFEFE8BBA4EFB1E00E94E9
:10017A002302E0E0E8BBA4EFB1E00E9423020F5F94
:10018A001F4FEDCF32C01A930A93E0E8E8BB00E0B4
:10019A0010E00A30E0E01E0764F4ACE2B1E00E942D
:1001AA002302E8B3F0E0F595E795E8BB0F5F1F4F30
:1001BA00F0CF1BC01A9310E019B318BB1991089518
:1001CA001A930A9309E010E009E010E011236AF09B
:1001DA00A0E6B1E0A00FB11FEC91E5BBAAEFB0E039
:1001EA000E94230201501040F1CF099119910895FC
:1001FA000E94E1013A2F00E010E0909A919A929AB7
:10020A00939A0430E0E01E077CF4303009F49098A9
:10021A00313009F49198323009F49298333009F464
:10022A0093980F5F1F4FEDCF6AC00E948C010E9406
:10023A009D01E5BB0E94AB01A1E0DADF0E94AF019C
:10024A00E5BB0E94AB01A2E0D3DF0E94BD01E5BB82
:10025A00AF9A0E94AB01AF98A3E0CADF0E94CB011C
:10026A00E5BB3CC00E94DA0133232AF0D901DDDF65
:10027A0021503040F9CF43C00E948C01879B03C0B4
:10028A00E091600102C00E949D01E5BB0E94AB01A2
:10029A00A1E0AEDF869B03C0E091600102C00E942C
:1002AA00AF01E5BB0E94AB01A2E0A2DF859B03C0C0
:1002BA00E091600102C00E94BD01E5BB0E94AB0152
:1002CA00AF9A0E94AB01AF98A3E092DF849B03C070
:1002DA00E091600102C00E94CB01E5BBA2E3B0E05D
:1002EA000E94230219810881279608950E94DA0143
:1002FA0033232AF0D901C0DF21503040F9CF0E94C0
:10030A00E60124960895A8EEB3E00C9423022597FB
:10031A00E0E0E883E2E0E983E4E0EA83E6E0EB8315
:10032A00E8E0EC831A930A938D01A0E00C94FD0097
:10033A00D801E4EFF1E00E940202DF01EAE0F0E016
:10034A000E940702E05AFE4FE0810895A2E3B0E05E
:10035A000C942302D801E2E3F0E00E940202DF01DA
:10036A00EAE0F0E00E940702E05AFE4FE0810895B9
:10037A00D801E5E0F0E00E940202DF01EAE0F0E0E5
:10038A000E940702E05AFE4FE0810895D801E5E095
:10039A00F0E00E940702DE011296AE0FBF1FEC9139
:1003AA00F0E0E05AFE4FE081089506D010E019B35C
:1003BA00A5E01A9F900108953A932A931A930A93F3
:1003CA0008953B812A81198108810895F195E19563
:1003DA00F04008950024112490E1AA0FBB1F001CCD
:1003EA00111C0E1A1F0A18F40E0E1F1E01C0A1605E
:1003FA009A9599F7FD01D001089512D0EBDF0EF41A
:10040A00E5DF0895E894B7FF04C0B195A195B0401F
:10041A006894F7FDDBDFDEDFFD010EF4D7DF089518
:10042A00E894F7FF02C0D2DF6894B7FF06C0B1951F
:10043A00A195B04000F8039400FA0895109639F097
:10044A00A89580ED97E00197F1F71197C9F70895FC
:00000001FF
