:0C0000000C9452000C9400000C940000C2
:10000C000C9400000C9400000C9400000C94000064
:10001C000C9400000C9400000C9400000C94000054
:10002C000C9400000C9400000C9400000C948201C1
:10003C000C9400000C9400000C9400000C94000034
:10004C000C9400000C9400001027E80364000A00D4
:10005C000100001000011000010041444320256400
:10006C003A2025642E25646D76006E65773E4144FA
:10007C004325643A256325646D76000080C0010039
:10008C002D4E414E00494E4600000200A901880049
:10009C000100AD018A000000F894EE27ECBBF1E002
:1000AC00FBBFEBBFE5BF8DE0A2E0BB27ED938A95CC
:1000BC00E9F780E094E0A0E6ED930197E9F7E6E933
:1000CC00F0E085919591009761F0A591B59105901F
:1000DC001590BF01F00105900D920197E1F7FB011E
:1000EC00F0CFEFE5EDBFE4E0EEBFC0E6D1E00C945D
:1000FC00DD01AA9324970E94B504E8850E943E0472
:10010C00ED91FD91662777270E9471050E944604A8
:10011C00EC83FD836E837F830E943A050E945B040F
:10012C00AC81BD818E819F810E94FE040E94A4053A
:10013C00A0E0B0E080E291E40E94FA050E943A054A
:10014C009F01E8E8F1E0FA93EA93E6E6F0E0FA932F
:10015C00EA93EC850E946104F8010E946704F9019E
:10016C000E9467048CE00E945C0360960E94BC04B1
:10017C0029960895AA930E94B3040E946C04A0814E
:10018C00A130C1F4EE810E943E040E947104D39709
:10019C0080F40E948104AE0FBF1F0D901C90EE8165
:1001AC000E943E04ED91FD91D001AE1BBF0BD39785
:1001BC0008F001C039C0EE810E943E040E94710417
:1001CC008D01F8010E94D1040E9471050E94460421
:1001DC000E943A059F0100240016010614F4EBE27C
:1001EC0001C0EDE25E2F00240216030614F4F9019F
:1001FC0005C0F901AFEFBFEF0E94DE049F01E8E9F3
:10020C00F1E0FA93EA93E6E7F0E0FA93EA93EA85F1
:10021C000E946104E52F0E946104F9010E946704A9
:10022C008CE00E945C0360960E948104EA0FFB1F25
:10023C000F01EE810E943E04ED91FD91D001ED93F2
:10024C00FC930E946C04E081E03021F40E946C0469
:10025C00A1E0A0830E94BA04279608951A930A93EA
:10026C00E0916001F09161010E94D1040E9471053E
:10027C00DF01CB01E4E1FEEA63E271E40E9448068F
:10028C000E9438050E945B04A3E3B3E383E290E48D
:10029C000E94FA05A0E0B0E080E09FE30E94AB056D
:1002AC000E943805ECBF099119910895E0E0EABB72
:1002BC00EBBBEFEFE7BBE0E0E8BBEFEFE4BBE0E06C
:1002CC00E5BBEFEFE1BBE0E0E2BB0895E5E6E3BFA1
:1002DC00E0E0E2BFECBFE9BF0895E0E0E7B9EBEE88
:1002EC00E6B9E0E0E0BF0895E1DFF0DFF6DFA0E182
:1002FC000E94F703789408950A921A92FA926A93DC
:10030C007A938A939A93AA93BA93EA93FA93EFB750
:10031C00EA93E091A801A0E6B1E0F0E0EE0FFF1F38
:10032C00AE0FBF1FE4B1F5B1ED93FC93A091A80102
:10033C000E947F000E94C503E0E0EA93A0E00E94C7
:10034C00B803A8E8B1E00E94E603A091A8010E94BE
:10035C00C000E0E0EA93A1E00E94B803A8E9B1E094
:10036C000E94E6030E943401ADE7B0E00E948C06C7
:10037C00A091A801AF5FA093A801A83018F0E0E00D
:10038C00E093A801E091A801E7B98BE18A95F1F718
:10039C00369AE991EFBFF991E991B991A9919991A7
:1003AC00899179916991F9901990099018959CDF30
:1003BC00FFCFFFCFBA93AA931A930A93AA81BB815A
:1003CC0012960E94F104309759F1AA81BB811496C0
:1003DC000E94F1048F01309761F00230E0E01E07BB
:1003EC0098F0F80131978F01AA81BB811496ED9397
:1003FC00FC93AA81BB811296ED91FD913196FE93EF
:10040C00EE933197AC81A083AA81BB810E94F10449
:10041C00FF232AF0ED91FD913196FE93EE9306C0E9
:10042C00AA81BB81EFEFFFEFED93FC93198108815B
:10043C0025960895BA93AA9326970E94B30410E0C8
:10044C00AC85BD85E0E0F0E0ED93FC93EA89FB8997
:10045C003196EA8BFB8B3197E4912E2FE03009F427
:10046C001DC1E12FE03039F4253211F411E002C046
:10047C000E94880412C1E130A9F4253219F40E94BB
:10048C0088040AC112E040E000E02D3211F401E0D2
:10049C0004C12B3211F44BE200C1203211F440E2C2
:1004AC00FCC002C0E23039F450E013E0203311F408
:1004BC000068F3C003C0E33009F0EFC0203310F044
:1004CC002A3308F007C0AAE05A9F502DE22FE053C0
:1004DC005E0FE3C0E22FE33649F40E948F04E889F3
:1004EC00F989A481AA930E949504D6C0E33741F4FC
:1004FC000E948F040E949B040E9425041E2F0AC098
:10050C00E03761F40E948F040E949B040E94310426
:10051C001E2F086002600F7730E03CC0E43611F00B
:10052C00E93611F4046002C0E53731F4E4E5F0E09B
:10053C00EE83FF8315E00CC0E83511F4086003C0AE
:10054C00E83709F0A9C0EEE5F0E0EE83FF8314E094
:10055C0002FF17C00E948F04A889B9891496ED91E7
:10056C00FD91EA87FB87AB85AA232AF40E94C50478
:10057C00EA87FB874DE2403011F01F5F01C00B7F13
:10058C0009C00E948F04A889B98914960E94F104AD
:10059C00EA87FB8700FD11C0151778F407FF08C028
:1005AC0002FF04C00B7F242F115001C020E301C0B7
:1005BC0020E20E9488045150EFCF312F01FF17C069
:1005CC003030A1F003FF06C0EE81FF812591EE8350
:1005DC00FF8305C0AE81BF812D91AE83BF830E9486
:1005EC008804503009F051503150EACF4BC020E311
:1005FC00EE81FF810E94F504E887F987EE81FF8187
:10060C003296EE83FF83E885F985AA85BB85AE1704
:10061C00BF0750F02F5FA885B985EA85FB85EA1BDB
:10062C00FB0BEA87FB87EFCF2A3328F003FF02C0CE
:10063C00295F01C0295D04FD1AC0213320F4A8856F
:10064C00B985119709F409C0531710F000FF01C0C8
:10065C0013C020E207FF0BC020E3006102FF07C0BC
:10066C000B7F4A930E949504503009F051500E9420
:10067C008804503009F051503150A885B985129733
:10068C0008F0B5CF00FF08C0503031F05150E0E217
:10069C00EA930E949504F8CF10E0D8CEAC85BD85C6
:1006AC00ED91FD910E94BA0464960895FF92F82E84
:1006BC0026970E94B504DE011C960E94C1040E947C
:1006CC00F104309719F4EFEFFFEF27C0DE01169617
:1006DC000E94C1048D01DE011C960E94C104ED91A3
:1006EC00FD91EE83FF83E0E0E887E987DE011A964F
:1006FC000E94C104ED91FD91FA93EA931A930A9327
:10070C00E0EEF1E0FA93EA93DE011A9693DE9F0194
:10071C00AE81BF81E0E0EC93F9010E94BC042A9603
:10072C00FF900895AA93E5B3EF70AE2FE881E07FB8
:10073C00EA2BE5BB8DE08A95F1F7AA9A8DE08A95B4
:10074C00F1F7AA988DE08A95F1F777C0AA93A88162
:10075C00E9DFE881E295E883A881E4DF85E88A9502
:10076C00F1F76BC0AA93E881F0E0E755FE4FE0810A
:10077C00A981AE0FEBDF5980488022960895A2E044
:10078C000E94A504ACE0E2DFA1E00E94A504E0E039
:10079C004E2E5E2E0895AA93A881AA3011F05714FC
:1007AC0048F0E0E0EA934394A42DDCDFA881AA3062
:1007BC0009F443C05394A89AA881C8DFA8983DC0F7
:1007CC00BA93AA931A93A981BA81ED91A983BA839A
:1007DC001E2FE03019F0A12FDEDFF5CF1881239604
:1007EC000895AA93E4B3E06FE4BBA29AA09AA19AED
:1007FC00AA98A898A9987880E881E058E093AB0172
:10080C00E881E054E093AC01A4E1B0E00E948C06D6
:10081C000E94AB040E94AB040E94AB04A0E282DFF6
:10082C0088EC90E00197F1F7A8E290DFA4E08EDF6E
:10083C00A5E88CDFA6E08ADFA2DF21960895BA93A3
:10084C00AA93A991B991EE27FF276D91662311F018
:10085C003196FBCF0895BA93AA93AA27BB27E991A7
:10086C00F9910590002011F01196FBCFFD01089530
:10087C00A0E6B1E0F0E0EE0FFF1FAE0FBF1F089532
:10088C00DF01CB01E0E0F0EC6FE774E40E94480676
:10089C00A0E0B0E080EA90E40E94FA05A0E0B0E0AD
:1008AC008AE794E40E94FA0508958F010E94D1040E
:1008BC000E9471050895FF27662777270E94F90487
:1008CC0008950E94D1040E94F9040895EE81F0E08D
:1008DC00E058FE4F08950D901C90EE81A0E7B1E01A
:1008EC00F0E0EE0FFF1FAE0FBF1FED91FD91D00199
:1008FC00AE1BBF0B0895EE81A0E7B1E0F0E0EE0F68
:10090C00FF1F08952A93AD85BE85EF85F88909955B
:10091C000895E889F9893497E88BF98B0895AD85AA
:10092C00BE85EF85F88909950895A889B98914962B
:10093C00ED91FD91EE83FF83AE81BF8108950E94FE
:10094C00AC03A3E0B0E00C948C06A0E30E949803E7
:10095C0088EC90E00197F1F708955A934A933A93F3
:10096C002A931A930A9308955D814C813B812A81C5
:10097C001981088108950024AF0DB01D0895F195DB
:10098C00E195F0400895F09560957095E195FF4FD5
:10099C006F4F7F4F08956F2F660F660B762F08955C
:1009AC00FA9FF02DEB9FF00DEA9FE02DF10D0895CD
:1009BC0004D0F6DF0EF4E3DF0895E894F7FF02C0ED
:1009CC00DEDF6894B7FF06C0B195A195B04000F882
:1009DC00039400FA0895ED91FC91119708950590F8
:1009EC00F491E02D08957A936A93FA93EA9308951B
:1009FC00182E862F612D192E972F712D1B2EBF2F80
:100A0C00F12D1A2EAE2FE12D0895552342F45038B6
:100A1C0011F4E0FF04C03196691F791F6BF050E8A8
:100A2C00572711F45F93CFC05F3F31F0660F000C76
:100A3C0057956795752F08955F9300200AF0CEC0E7
:100A4C00C7C050E8192E1522880F991F9527550FEE
:100A5C00879550E8072E0522660F771F7527550FCF
:100A6C0067950895689401C0E8945F93F2DF70383D
:100A7C0018F07F3F08F4A7C056E1571BAAF4519514
:100A8C0058300EF4593030F0EFEFFFEF6FEF7FE797
:100A9C0077F91AC077275523B9F0EE0FFF1F661FA1
:100AAC00771F5A95D1F710C07727583028F0EF2FC1
:100ABC00F62F672F5850F9CF552331F0769567955F
:100ACC00F795E7955A95D1F700200AF45CDF5F9112
:100ADC000895689401C0E894309760407040B1F07C
:100AEC00002426F0772312F400944DDF172E7EE1BC
:100AFC00112032F07A95EE0FFF1F661F111CF9CFF3
:100B0C00EF2FF62F612D5F938ADF5F9108954F933E
:100B1C00AF01FD01DA01AB01BC01CA01402D012C72
:100B2C00142E4F910895EA0FFB1F681F0895E0954E
:100B3C00F0956095EF5FFF4F6F4F08955F9381DFE6
:100B4C00903871F150E8152604C05F937ADF903825
:100B5C0039F1703821F1572F591B2BF112F4D7DFD3
:100B6C00FACF583118F0AA27BB278827583028F01D
:100B7C00AB2FB82F88275850F9CF552329F08695DD
:100B8C00B795A7955A95D9F7502D512572F0CBDF13
:100B9C0038F46795F795E795739513F41FC0B7DF95
:100BAC003EDF5F910895D8F7FBCFEA1BFB0B680B78
:100BBC0051F010F40094BBDF662392F3EE0FFF1F8D
:100BCC00661F7A95CBF7EE27FF27BF015F9108953B
:100BDC00EFEFFFEF6FE77FEF5F910895EFEFFFEF20
:100BEC006FE77FE75F9108955F932BDF703859F3C0
:100BFC00903849F301240894791F23F424F300203E
:100C0C003AF3ECCF0F921F932F933F934F931127EF
:100C1C0022279927689FA0018F9F302D410D591FC6
:100C2C006B9F300D411D591F8E9F27D0BF9F25D024
:100C3C006A9F23D0BE9F1DD0AF9F1BD0AE9F110DBE
:100C4C00291F391F491F591FE32FF42F652F522FCE
:100C5C004F913F912F911F910F9066232AF0550FC2
:100C6C00EE1FFF1F661F02C073954BF2CEDE5F9125
:100C7C000895100D211D391F02C0200D311D491F73
:100C8C00591F08955F93DDDE703821F411200AF4AA
:100C9C009FCFA4CF903809F496CF01240894970BDA
:100CAC001BF4D4F30020F3CF792F1F932F933F9392
:100CBC004F931124112722273327A90190E2AE1755
:100CCC00BF078607410730F0AE1BBF0B860B410BED
:100CDC00089401C08894551F221F331F111CAA1F92
:100CEC00BB1F881F441F9A9551F7F901612D4F9135
:100CFC003F912F911F91662332F0550FEE1FFF1F6E
:100D0C00661F7A954BF281DE5F910895109639F04B
:100D1C00A89580ED97E00197F1F71197C9F7089521
:00000001FF
