:040000000C945C03FD
:100004000C9400000C9400000C9400000C9400006C
:100014000C9400000C9400000C9400000C9400005C
:100024000C9489030C9400000C9400000C940000C0
:100034000C9400000C9400000C9400000C9400003C
:100044000C9400000C9400000C9400000C9400002C
:1000540005072060000000000000005F00000007AA
:10006400000700147F147F14242A7F2A1223130804
:10007400646236495522500005030000001C2241E9
:10008400000041221C00082A1C2A0808083E08080F
:100094000050300000080808080800303000002034
:1000A400100804023E5149453E00427F400042612F
:1000B4005149462141454B311814127F10274545BB
:1000C40045393C4A494930017109050336494949D2
:1000D40036064949291E003636000000563600000F
:1000E40000081422411414141414412214080002A8
:1000F40001510906324979413E7E1111117E7F4931
:100104004949363E414141227F4141221C7F4949B0
:1001140049417F090901013E414151327F080808E4
:100124007F00417F41002040413F017F081422416C
:100134007F404040407F0204027F7F0408107F3EDE
:100144004141413E7F090909063E4151215E7F0933
:10015400192946464949493101017F01013F40407F
:10016400403F1F2040201F7F2018207F6314081465
:10017400630304780403615149454300007F41410E
:10018400020408102041417F0000040201020440DF
:1001940040404040000102040020545454787F48F9
:1001A4004444383844444420384444487F38545400
:1001B4005418087E090102081454543C7F080404AE
:1001C4007800447D40002040443D00007F102844D6
:1001D40000417F40007C041804787C0804047838CB
:1001E400444444387C14141408081414187C7C08FF
:1001F4000404084854545420043F4440203C4040E4
:10020400207C1C2040201C3C4030403C44281028CA
:10021400440C5050503C4464544C44000836410053
:1002240000007F0000004136080002010204027F42
:100234004141417F800040000000000000000000B8
:1002440000000000000000000000000000000000AA
:10025400000000000000000000000000000000009A
:10026400000000000000000000000000200000006A
:100274000000000000000000000000000008080862
:10028400103030E0E0C0C0808000000000000000BA
:10029400000000000000000000000000000000005A
:1002A400000000000000000000000000000000004A
:1002B400000000000000000000000000000000003A
:1002C400000000000000000000000000000000002A
:1002D400000000000000000000000000000000001A
:1002E40000002000000002000000000000000000E8
:1002F400000000000080C0E0E0E0E0E0C00000009A
:100304000000000000030F7FFFFFFEFEFCF8F0E09A
:100314008000000000000000000000000000000059
:1003240000000000000000000000000000000000C9
:1003340000000000000000000000000000000000B9
:1003440000000000000000000000000000000000A9
:100354000000000000000000000000000040000257
:100364000000000000000000000000000000000089
:1003740000000000020F1F3F3F3F3F1F1F0300000C
:1003840000000000000080F5FFFFFFFFFFFFFFFFFC
:10039400FFFFFCF8C00000000000000000000000A7
:1003A4000000000000000000000000000000000049
:1003B4000000000000000000000000000000000039
:1003C4000000000000000000000000000000000029
:1003D4000000000000000000000000800400000095
:1003E4000000000000000000000000000000000009
:1003F4000000000000000000000000000080808079
:10040400C0E0F0F0F8FEFFFFFFFFFFFFFFFFFFFF7C
:10041400FFFFFFFFFFFA00000000000000000000E3
:1004240000000000000000000000000000000000C8
:1004340000000000000000000000000000000000B8
:1004440000000000000000000000000000000000A8
:100454000000000000000000000000004800000050
:1004640000000000000000000000000080C0E0F078
:10047400F8FCFCFEFEFFFFFFFFFFFFFFFFFFFFFF97
:10048400FFFFFFFFFFFFFFFFFFFFFFFFFFFFFFFF78
:10049400FFFFFFFFFF3F020000000000000000001C
:1004A4000000000000000000000000000000000048
:1004B4000000000000000000000000000000000038
:1004C4000000000000000000000000000000000028
:1004D40000000000000000000000000000040040D4
:1004E4000000000000000000000000FCFFFFFFFF10
:1004F400FFFFFFFFFF0F070303030307079FFFFF30
:10050400FFFFFFFFFFFFFFFFFFFFFFFFFFFFFFFFF7
:10051400FFFF3F0F03000000000000000000000088
:1005240000000000000000000000000000000000C7
:1005340000000000000000000000000000000000B7
:1005440000000000000000000000000000000000A7
:100554000000000000000000000000000000000097
:100564000004000010000000000000071F7FFFFFD0
:10057400FFFFFFFFFFFEFCF8F8F8F8FCFCFFFFFFAD
:10058400FFFFFFFFFFFFFFFFFFFF7F7F1F1F0F071F
:100594000100000000000000000000000000000056
:1005A4000000000000000000000000000000000047
:1005B4000000000000000000000000000000000037
:1005C4000000000000000000000000000000000027
:1005D4000000000000000000000000000000000017
:1005E4000000000000000001000000040000000101
:1005F4000307070F0F1F1F1F1F1F1F1F1F1F0F1F83
:100604000F0F0F07070303010100000000000000A3
:1006140000000000000000000000000000000000D6
:1006240000000000000000000000000000000000C6
:1006340000000000000000000000000000000000B6
:1006440000000000000000000000000000007E0028
:100654000900090009007E007E0009000900090064
:100664007E00000000000000000000000000000008
:1006740000000000000000001027E80364000A00E6
:1006840001000010000110000100000103070F1F0A
:100694003F7FFF0000000000000001002D4E414E8E
:1006A40000494E460000060004009806010082013D
:1006B4009E060000F894EE27ECBBF1E0FBBFEBBF15
:1006C400E5BF8DE0A2E0BB27ED938A95E9F780E0D2
:1006D40094E0A0E6ED930197E9F7EAEAF6E0859164
:1006E4009591009761F0A591B59105901590BF0182
:1006F400F00105900D920197E1F7FB01F0CFEFE5D2
:10070400EDBFE4E0EEBFC0E6D1E00C94A7030A928B
:100714001A92FA926A937A938A939A93AA93BA93BF
:10072400EA93FA93EFB7EA93E4E6E2BF5FD0E99184
:10073400EFBFF991E991B991A99199918991799131
:100744006991F9901990099018950E946F043ED010
:1007540002D0FECFFFCF0E947D0CE5E0F0E06E16E4
:100764007F0664F066247724F40131964F01E7E1B3
:10077400F0E0E815F90514F48824992400E010E069
:100784000830E0E01E075CF4D401A00FB11F0E9402
:10079400520B979A0E945E0B0F5F1F4FF1CF00E040
:1007A40010E00830E0E01E076CF4F8013896E80D1C
:1007B400F91DDF010E94520B97980E945E0B0F5F98
:1007C4001F4FEFCF0E94840C0C94DA04E0E0EA930C
:1007D400EA93E8E3F2E0FA93EA93A0E00E941509B1
:1007E400A8EBBBE00E94E00E789408950E947D0C73
:1007F400F20131962F0131973F01E2E3F0E04E160A
:100804005F060CF466C044245524F50131965F015B
:10081400ECE3F0E0AE16BF06F4F0AA24BB24F60124
:1008240031966F01ECE3F0E0CE16DF06A4F0CC24A1
:10083400DD24ADE7B1E0ED91FD913196FE93EE93A9
:10084400A0917D01B0917E011C972CF0E0E0E09333
:100854007D01E0937E010E945F06E0E2EA93E2E01C
:10086400EA93E0E4EA93ACE30E948D0A0E94670BEA
:100874000E94DC040E94820B8F010E94670B0E947D
:1008840068050E94820B9F01E3E00E948B0B0E948B
:10089400990B0E94DC040E94B10B8F010E94990BFA
:1008A4000E9468050E94B10B9F01E2E00E948B0B3D
:1008B4000E94BA0B0E94DC040E94D20B8F010E949A
:1008C400BA0B0E9468050E94D20B9F01E1E00E94CE
:1008D4008B0B0E94840C0C94DA042697EFEFEABB8E
:1008E400E0E0EBBBEFEFE7BBE0E0E8BBEFEFE4BB3E
:1008F400E0E0E5BBEFEFE1BBE0E0E2BBE5E0E3BF56
:10090400E4E6E2BFE0E0ECBFE1E0E9BFE4E5F0E00B
:10091400E883F983E0E0EA83EB83EC83ED83DE0193
:100924000E94F8050C94E5060E94060D7B816A81FD
:10093400F981E88177FB770F67FD7160972F9E57E8
:1009440081F078F0983190F4AA27BB27882708947F
:100954008795B795A7959A95D1F7EA23FB23682342
:1009640005C0E8947727EE27FF2766276F777695EB
:1009740008F4606877F9A991B99189919991EA1776
:10098400FB076807790797FB08950E94DB0B0E9419
:1009940096040E94010D19F40E94F70C09C0E6F7B1
:1009A4000E94F70CA0E0B0E080E89FE30E94D80D1D
:1009B400249608950E94060D24971A9310E00E942D
:1009C400E00BE3E8F9EF62E27EE30E942E0E0E9460
:1009D400E50BDBDF0E94E00B0E940B0D0E94D80D9B
:1009E4000E94E50BE0E0F0E060E07FE30E94C00ECF
:1009F40009F008F409C00E94EA0BA0E0B0E080E02E
:100A04009FE30E94EF0B11E00E94E00BE0E0F0E0B6
:100A140060E87EE30E94C00E09F008F408C00E945A
:100A2400E00BE0E0F0E060E07FE30E94EF0B1030C9
:100A340041F00E94EA0B0E94390DED83FE836F831F
:100A440078870E94EA0B0E94E00B0E942E0EE98335
:100A5400FA836B837C83A1EBB4EC86E292E40E947C
:100A64002E0EDF01CB01EDE1F5EE6DE272E40E94A2
:100A74000B0D0E94D80D0E94F60BACE4B3E584E0A4
:100A840091E40E94DF0D0E94E00B0E942E0E7F93E2
:100A94006F93FF93EF93E981FA816B817C81A1E1EC
:100AA400BDEE8EED9FE30E94DF0D0E94F60BAEE5D6
:100AB400BBE788EA9FE30E94DF0DAF91BF918F915E
:100AC4009F910E947C0E18810C9441090E94DB0BBB
:100AD400EBEDFFE069EC7FE30E94D80DDF01CB0171
:100AE40069DF0C94500B0000909A000008959098D0
:100AF4009498959808951A93F6DF13B39098E12F7C
:100B040019910895AA931A93E0E0E4BB919A9298FC
:100B1400E981EF5F1E2F10FF02C0949A01C09498E0
:100B240011FF02C0959A01C09598E5DFE078E9F7D6
:100B340018810C94EA0AAA93A981E4DF0E94FD0BB0
:100B44000C94EA0AE0918001EA93E0917F01EF734B
:100B5400E064AE2FF0DFE0918001EA93E09181013F
:100B6400E86BAE2FE8DF0895AA93E981E0937F0153
:100B7400E295EF70E695E695E0938001E881E093D5
:100B84008101E0DF0C94EA0AA0917F01AF5FA0939A
:100B94007F01A03818F0E0E0E0937F01E0917F014D
:100BA400EF7331F4E0917F01EA93A0918101DCDFDE
:100BB4000895AA93A0918001A5DF929A0E94FD0B4B
:100BC40021960895A09180019DDFE0E0E4BB919A15
:100BD400929A91DF0895AA93E981EA93E9810E94A8
:100BE400060CF0DFAFDFEEDF0C94EA0ABA93AA93A7
:100BF4001A93889A899A8A9A8B9A939A8C9A8D9A3C
:100C040076DF9398A4E6B0E00E94E00E939A10E099
:100C1400123040F41A93AFE38EDF1A931395A0ECCD
:100C24008ADFF6CFE1E0E0936001E0E0E093610168
:100C3400E981FA813097B9F0A981BA81ED91FD91EA
:100C4400E0936401F0936501A981BA811296ED9154
:100C5400FD91E0937901F0937A01A981BA81149608
:100C64000E94F30C0AC0E0E0F0E0E0936401F0932A
:100C74006501E0937901F0937A01E0937B01F093AD
:100C84007C01E1E0E0936601E0936701E093680191
:100C9400EFEFE0936901E1E0E0937001E1E7F1E057
:100CA400FA93EA93EFEFEA93A8E0B0E00E94D10A46
:100CB40004D0E1E018810C94310B0E947D0C00E01B
:100CC40030E0E0916101E03009F00FEF383078F462
:100CD400E0E0EA93A32F3F5F47DF10E0A12F1F5FFF
:100CE400A03820F4A02F0E940C0CF8CFEFCFE0E046
:100CF400EA93A0E039DFE0E0EA93A0E0DCD20E94CE
:100D0400840C0C94500BAA931A930A93AC81A038C8
:100D140018F4AB81A03420F0198108810C94DF0A07
:100D2400EC81EA93AC8157DF1E2F0CDFEB81E77077
:100D3400A1E00E94950C0E2FEA81E03011F0102BF7
:100D440003C0E02FE0951E23A12F33DF1981088112
:100D54000C94DF0AAA931A93ED81EA93AD813BDFE9
:100D64001E2FF0DEE981E73011F0E83039F4EB8131
:100D7400EA93AA810E94EC0AEB8308C0E33021F4D1
:100D8400EB81E095EB8302C0E03021F4EA81E09549
:100D94001E2302C0E23029F4EA81AB81EA231E2B30
:100DA4000EC0E13029F4EA81AB81EA231E2707C093
:100DB400E43029F4EA81E095AB81EA2B1E23A12FCC
:100DC4000E940C0C188126960895AA9323970E94DA
:100DD4007B0CA889A03848F4AF85A03430F4AE85E4
:100DE400A03019F0AD85A03009F4C8C1EE85E887BC
:100DF400A889BB27EE85F0E0AE0FBF1FA138E0E065
:100E0400BE0720F0A889E0E8EA1BEE872D85AF85B0
:100E1400BB27ED85F0E0AE0FBF1FA134E0E0BE07B5
:100E240020F0AF85E0E4EA1BED87A985A63009F040
:100E34005BC0EC85E13009F4A1C1E33039F4E09101
:100E44007B01F0917C01309709F498C10885ED8508
:100E5400E695E695E6953E2FE22FE77019F4AD8509
:100E64002A17E9F0A02FBB27E32FF0E00E94AA0C79
:100E7400AA85BB850E94100C269526952695532F8E
:100E84005F935F5FE22FAF91EA1748F0102FE12FD5
:100E94001150E03019F00E94150CF9CFF1CFAE8556
:100EA4000A1711F1EE85AA85BB85F0E00E94100CAB
:100EB400ED85E77009F03F5F20E02F932F5FE32F6C
:100EC400AF91AE1788F41E851F931F5FE02FAF917B
:100ED400AE1718F40E94150CF7CFEE85AE81BF81D2
:100EE400F0E00E94100CE9CFEF85E7703E2FED850E
:100EF400E03009F443C1EA85FB85EE83FF8310E00B
:100F04000889303009F065C0AD85A83008F45CC0AC
:100F1400E985E03011F0E33009F402C0E73009F468
:100F240002C0E83009F402C0E63009F402C0E93036
:100F340009F402C0EA3021F40A93E8890E94060CFD
:100F44001F931F5FEE85AF91AE17B8F5A985A63044
:100F540061F438DEF7DD0E94220CFA93EA9332DE64
:100F6400AE2F0E94330B10DE27C0E985E93011F45F
:100F740050E00EC0EA3011F45FEF0AC00E94220C68
:100F84000E942B0C5E2FE985E73011F0E83021F444
:100F94000E94310C5E2F06C0E33011F4509502C05C
:100FA400E03021F4A52F0E940C0C06C00E94350CE1
:100FB400EFEFEA93AD85CEDEC3CFEF85E85FEF8731
:100FC400ED85E850ED87D1C05D8520E0E0E0ED8758
:100FD4007AC0E32FAD85AE0FA93020F42D85E0E073
:100FE400ED8703C0E8E0E31B2E2F3A93A22F0E9463
:100FF400E10A4E2FE985E630F1F41F931F5FEE8579
:10100400AF91AE17B8F40E943B0CAE2FE32F0E94B1
:101014009D0C0E94420CE32FA42F0E949D0CE0958E
:10102400E1215E2B0E94220CFA93EA93A52F0E94E1
:10103400330BE3CF2CC0E93011F450E003C0EA30A5
:10104400A9F45FEF0E94310CAE2FE32F0E94950CA0
:101054005E2F1F931F5FEE85AF91AE1730F40E9491
:10106400350C4A93A0E076DEF4CF11C01F931F5FC6
:10107400EE85AF91AE1758F40E944D0CAE2FE32FBE
:101084000E94950CEA934A93AD8564DEEFCFED851B
:10109400E03009F473C0AD85A83028F4ED85E21B77
:1010A4005E2FE0E003C0532FED85E850ED8710E09C
:1010B400EF85E85FEF87E8E0E31B2E2F0889EA85D8
:1010C400FB85EE83FF83E52FF0E0E257F94F44916F
:1010D400E985E630F1F41F931F5FEE85AF91AE17FB
:1010E400B8F40E943B0CAE2FE22F0E94950C0E9494
:1010F400420CE22FA42F0E94950CE095E1215E2B77
:101104000E94220CFA93EA93A52F0E94330BE3CF9B
:101114002CC0E93011F450E003C0EA30A9F45FEFC9
:101124000E94310CAE2FE22F0E949D0C5E2F1F9364
:101134001F5FEE85AF91AE1730F40E94350C4A93D1
:10114400A0E008DEF4CF11C01F931F5FEE85AF91BE
:10115400AE1758F40E944D0CAE2FE22F0E949D0C46
:10116400EA934A93AD85F6DDEFCFE885AA85BB8582
:10117400F0E0EA0FFB1FEA87FB87B9CE0E94820CDE
:10118400619608950E945A0C24F0E0E0F0E00C947B
:10119400EA0AA881B981A038E0E0BE071CF0EFE7B5
:1011A400F0E016C2E881F98113C20E945A0C1CF0C7
:1011B400E0E0F0E00DC2A881B981A034E0E0BE0710
:1011C4001CF0EFE3F0E004C2E881F98101C2AA93C4
:1011D4001A93AA81A13818F4A981A13438F0E0E067
:1011E400F0E060E070E018810C94310BE981E77065
:1011F4001E2FE981E695E695E695E983103011F016
:10120400EF5FE983AA81BB2788279927E981FF2714
:10121400662777270E94B20CEC5FFF4F6F4F7F4F1A
:1012240018810C94310BAA930E947D0CAC81A530DB
:1012340000F5ED81FE8105910E94610C15910E94DB
:10124400610C25910E94610C3591ED83FE83E88544
:10125400EA93E885EA930A932A93E1E0EA93EA851C
:10126400FB85FA93EA93AB85B0DD0A93A22FAFDF37
:1012740004C0E0E0F0E060E070E00E94840C299695
:101284000895AA93EA81EA93EA81EA93E0916901D5
:10129400AA81EA2319F0E091600102C0E0916101A2
:1012A400AE2F31DDE881EE0FE883E03011F4E1E0A8
:1012B400E883E881D4C1AA93A981BB2763DFE093C3
:1012C4006201A881BB2771DFE093630181C1AA9306
:1012D4002B970E947B0CAC89BB2754DFEC8BAA892B
:1012E400BB2750DFEA8BAB89BB275FDFEB8BA98978
:1012F400BB275BDFE98BEA89E0936201E989E0932C
:101304006301E1E0E887E989AB89EA1779F51C898B
:10131400AA891A1731F41A93EC89EA93A1E0B1DF90
:10132400CBC0AA891A1730F4EA89E11B0E2F41E0D9
:1013340050E006C0AA89E12FEA1B0E2F4FEF5FEFA2
:101344003B89E0916801EE830E94640C39F01A93A2
:101354003A933395AA8595DFEF83F6CFEF81E8873B
:10136400140FE02F0150E03059F7A6C0EA89AC8988
:10137400EA1741F53B89A9893A1730F4E989E31B57
:101384002E2FE1E0F0E006C0A989E32FEA1B2E2FFF
:10139400EFEFFFEFED87FE871C89E0916801EE8394
:1013A4000E94640C31F01A9313950E94690CEF8328
:1013B400F7CFEF81E887ED853E0FE22F2150E03033
:1013C40059F77AC0E0916801EE830E94640C09F435
:1013D40073C01C893B89E1E02E2F0E2FAA89BB27FD
:1013E400EC89F0E0AE1BBF0BAD0155232AF40FEFDF
:1013F400FA010E94890CAF01FA01EE0FFF1FEF877B
:10140400F88BA989BB27EB89F0E0AE1BBF0BAD8736
:10141400BE87AE85AA233AF42FEFED85FE850E94A0
:10142400890CED87FE87ED85FE85EE0FFF1FEB87A8
:10143400FC871A933A93A1E024DFE887E0E0E98788
:10144400EA87AD85BE854A175B07BCF0100FEB85B4
:10145400FC850E946D0CA985BA854A175B072CF49C
:10146400320FAF85B8890E94740C1A930E94690CDC
:10147400E887EA89E11751F718C0320FEF85F88938
:101484000E946D0CED85FE85A985BA85EA17FB07D8
:101494002CF4100FAB85BC850E94740C1A930E9427
:1014A400690CE887E989E31741F7EB89EF5FEB8B78
:1014B400E989EF5FE98B89CF0E94820C65960895D4
:1014C400BA93AA930E947B0CEE81FF811381018160
:1014D4003281AE81BF812C91011718F4502F012F56
:1014E400152F231718F4522F232F352FE12FAE81F8
:1014F400BF811396EC93E32FAE81BF811296EC93D8
:10150400E02FAE81BF811196EC93AE81BF812C9305
:101514000E94820C42C0AA93EB81EA93EB81EA9386
:10152400ED81E150AB81EA0FEA93ED81E150AB81AB
:10153400AE0F01D0B3C0AA930E947D0CE091680164
:10154400E1503E2FDE011496BBDFED81E31B1E2F1D
:10155400EC81E31B0E2FEF81EA93EF81EA931A9358
:10156400A985B5DE1A93EF81EA931A93A02FAFDE13
:10157400ED81EA930A93E32FA985EA0FEA93A02F5A
:10158400A6DEEF81EA93ED81EA93E985EA93E32FFE
:10159400A985AE0F9CDE0E94840C28960895BA9308
:1015A400AA93B981A881109631F0FC81EB816A81FC
:1015B40061931197E9F7EB81FC8125960895AA932D
:1015C400E881F0E0E257F94FA491E9810E94950C7B
:1015D40022960895AA931A93E981E73011F0EA302C
:1015E40019F41091600109C0E93019F410916101F6
:1015F40004C0E830A1F410917001E0916101E03081
:1016040049F0103019F0EFEF188129C0EA81E09514
:10161400188125C0103019F4E0E0188120C0EA8157
:1016240018811DC0BA93AA93EA81E13021F4E881BC
:10163400F981E49114C0E23029F4A881B9810E94AF
:10164400180D0DC0E33041F4A881B981E09179010E
:10165400F0917A01099503C0A881B981EC91239690
:101664000895AA93EB81E03029F4E881A981BA8135
:10167400EC9314C0E23031F4E881A981BA810E946C
:10168400240D0CC0E33051F4E981FA81FA93EA9312
:10169400AA81E0917B01F0917C010995249608953B
:1016A400E8E1F0E00E94E50CACE3B6E0EE0FFF1FCA
:1016B400EA0FFB1F34910895E02FA1E00E94950CDE
:1016C400EBBBE32FE095E8BB0895E0917D01F09139
:1016D4007E01EE0FFF1F0E94A50C0E94A50DABED2D
:1016E400BFE089E490E40E942E0EDF01CB01E0E02C
:1016F400F0E060E471E40E947C0EDF01CB01089508
:10170400A0E0B0E080E691E40E942E0E0E946E0DEF
:101714000895E0936801E0E4EA93E0E2EA93E02FBD
:10172400E05CEA93E0E2E21BAE2F0C946909F60157
:10173400EE0FFF1F0E94A50C0E94A50DABEDBFE0AC
:1017440089E490E40E942E0EDF01CB01E0E0F0E09A
:1017540060E772E40E947C0EDF01CB010895A0E0F3
:10176400B0E088EA91E40E942E0E0E946E0D089566
:10177400F501EE0FFF1F0E94A50C0E94A50DABED15
:10178400BFE089E490E40E942E0EDF01CB01E0E08B
:10179400F0E060E772E40E947C0EDF01CB01089563
:1017A400A0E0B0E080EE91E40E942E0E0E946E0D47
:1017B40008950E94060D0E94FC0C0895AD81BE811F
:1017C4008F8198850895ED83FE836F837887F6CFA4
:1017D400ED81FE816F81788508950E94D80DED8397
:1017E400FE836F8378870895A981BA818B819C8158
:1017F4000E942E0E08959198EFEFE4BBE881E5BBBB
:101804000E9475050C947905E695E695E695AE2F4C
:101814000C94B6050E94DB050C94C605EA0FFB1F69
:10182400EE83FF830895EC85EA93EF81F885319682
:10183400EF83F8873197FA93EA93A0E00C94330B83
:10184400EC85EA93EF81F8853196EF83F887319739
:10185400089566277727DF01CB010C94140B5A9364
:10186400AA850C94EC0A0A930395E889EA935A939F
:1018740008950A930395A8890E94ED05E423089529
:101884005E2FEC85EA93AF81B885882799270E945B
:10189400140B1E2E08950A930395E889EA93EE85A6
:1018A400EA93E985FA853196E987FA873197D1CFAA
:1018B400BA93AA93A881B9810E94350D0895ED8346
:1018C400FE830895EE81E150EE83EF5F08953A932D
:1018D400AA850C944309A985BA85EA0FFB1FE987F9
:1018E400FA870895E985FA85EA1BFB0BE987FA87ED
:1018F40008955A934A933A932A931A930A9308950C
:101904005D814C813B812A81198108810895F1957B
:10191400E195F0400895F09560957095E195FF4F3D
:101924006F4F7F4F0895EE230E2EEA2F19F0EE0F1E
:101934000A94E9F70895EE230E2EEA2F19F0E6959E
:101944000A94E9F708956F2F660F660B762F0895B2
:10195400FA9FF02DEB9FF00DEA9FE02DF10D089515
:101964007A9F702D6B9F700DF89F700DE99F700D1D
:101974006A9F602D710DFB9F600D711DE89F600DC6
:10198400711D8827FA9FF02D610D781FEB9FF00DD4
:10199400611D781FEA9FE02DF10D681F781F0895DF
:1019A4000024112490E1AA0FBB1F001C111C0E1A65
:1019B4001F0A18F40E0E1F1E01C0A1609A9599F714
:1019C400FD01D0010895E894B7FF04C0B195A19535
:1019D400B0406894F7FD9BDFE3DFFD010EF497DF71
:1019E4000895ED91FC9111970895E881F9816A8138
:1019F4007B810895A881B9818A819B810895E883B8
:101A0400F9836A837B8308959A938A93BA93AA93FA
:101A14000895182E862F612D192E972F712D1B2EA8
:101A2400BF2FF12D1A2EAE2FE12D0895E199FECF8F
:101A3400FF93FFB7F894AEBBBFBBE09AEDB3FFBF13
:101A4400FF910895E19B02C0A895FCCF9FB7F8943D
:101A5400AEBBBFBBE09A8DB3E81719F0EDBBE29AB9
:101A6400E19A9FBF089500240A160B060895309743
:101A74006040704009F070580895552342F450387E
:101A840011F4E0FF04C03196691F791F6BF050E830
:101A9400572711F45F93CFC05F3F31F0660F000CFE
:101AA40057956795752F08955F9300200AF0CEC06F
:101AB400C7C050E8192E1522880F991F9527550F76
:101AC400879550E8072E0522660F771F7527550F57
:101AD40067950895689401C0E8945F93F2DF7038C5
:101AE40018F07F3F08F4A7C056E1571BAAF451959C
:101AF40058300EF4593030F0EFEFFFEF6FEF7FE71F
:101B040077F91AC077275523B9F0EE0FFF1F661F28
:101B1400771F5A95D1F710C07727583028F0EF2F48
:101B2400F62F672F5850F9CF552331F076956795E6
:101B3400F795E7955A95D1F700200AF4ECDE5F910A
:101B44000895689401C0E894309760407040B1F003
:101B5400002426F0772312F40094DDDE172E7EE1B4
:101B6400112032F07A95EE0FFF1F661F111CF9CF7A
:101B7400EF2FF62F612D5F938ADF5F9108954F93C6
:101B8400AF01FD01DA01AB01BC01CA01402D012CFA
:101B9400142E4F910895EA0FFB1F681F0895E095D6
:101BA400F0956095EF5FFF4F6F4F08955F9381DF6E
:101BB400903871F150E8152604C05F937ADF9038AD
:101BC40039F1703821F1572F591B2BF112F4D7DF5B
:101BD400FACF583118F0AA27BB278827583028F0A5
:101BE400AB2FB82F88275850F9CF552329F0869565
:101BF400B795A7955A95D9F7502D512572F0CBDF9B
:101C040038F46795F795E795739513F41FC0B7DF1C
:101C14003EDF5F910895D8F7FBCFEA1BFB0B680BFF
:101C240051F010F40094BBDF662392F3EE0FFF1F14
:101C3400661F7A95CBF7EE27FF27BF015F910895C2
:101C4400EFEFFFEF6FE77FEF5F910895EFEFFFEFA7
:101C54006FE77FE75F9108955F932BDF703859F347
:101C6400903849F301240894791F23F424F30020C5
:101C74003AF3ECCF0F921F932F933F934F93112777
:101C840022279927689FA0018F9F302D410D591F4E
:101C94006B9F300D411D591F8E9F27D0BF9F25D0AC
:101CA4006A9F23D0BE9F1DD0AF9F1BD0AE9F110D46
:101CB400291F391F491F591FE32FF42F652F522F56
:101CC4004F913F912F911F910F9066232AF0550F4A
:101CD400EE1FFF1F661F02C073954BF2CEDE5F91AD
:101CE4000895100D211D391F02C0200D311D491FFB
:101CF400591F08955F93DDDE703821F411200AF432
:101D04009FCFA4CF903809F496CF01240894970B61
:101D14001BF4D4F30020F3CF792F1F932F933F9319
:101D24004F931124112722273327A90190E2AE17DC
:101D3400BF078607410730F0AE1BBF0B860B410B74
:101D4400089401C08894551F221F331F111CAA1F19
:101D5400BB1F881F441F9A9551F7F901612D4F91BC
:101D64003F912F911F91662332F0550FEE1FFF1FF5
:101D7400661F7A954BF281DE5F91089599239AF05C
:101D8400772342F0971748F029F4AE17BF07860768
:101D940020F031F0989488940895989408940895C4
:101DA4001894889408957723C2F7971798F3A9F79E
:101DB400EA17FB07680788F399F3ECCF109639F01C
:101DC400A89580ED97E00197F1F71197C9F7089569
:00000001FF
