:080000000C945F000C948C00CD
:100008000C948D000C9400000C948E000C9400004D
:100018000C9400000C9400000C9400000C94000058
:100028000C9400000C9400000C9400000C94000048
:100038000C9400000C9400000C9400000C94000038
:100048000C9400000C9400000C9400001027E803A6
:1000580064000A0001000010000110000100000007
:10006800FFFF010072706D3A202B322E35002020E0
:1000780073746F7020200072706D3A202D322E3507
:10008800000080C001002D4E414E00494E46000040
:100098000600040066000A0060016C0009006A019D
:1000A80076000A0073017F0002007D018A000100CA
:1000B80081018C000000F894EE27ECBBF1E0FBBF57
:1000C800EBBFE5BF8DE0A2E0BB27ED938A95E9F78A
:1000D80080E094E0A0E6ED930197E9F7E8E9F0E025
:1000E80085919591009761F0A591B591059015902E
:1000F800BF01F00105900D920197E1F7FB01F0CFE8
:10010800EFE5EDBFE4E0EEBFC0E6D1E00C942301DB
:10011800189518950A921A92FA926A937A938A9382
:100128009A93AA93BA93EA93FA93EFB7EA93E0E023
:10013800E4BDD3011196EAE0F0E00E9456043F01C5
:10014800062C072809F045C0E1E0F0E0E815F905BC
:1001580071F40E949903A0E6B1E00E949E033496D0
:100168000E94AC0324F0E2E0F0E00E94BC03E2E06D
:10017800F0E0E815F90591F4F2013A962F010E9492
:100188009903AAE6B1E00E945A03E8E4F0E04E16AB
:100198005F0624F0E3E0F0E00E94BC03E3E0F0E057
:1001A800E815F90599F40E949903A3E7B1E00E94C4
:1001B8009E03A7E0B0E00E948804EA1BFB0B0E94A4
:1001C800AC0324F0E1E0F0E00E94BC03F2013196B8
:1001D8002F01E991EFBFF991E991B991A99199910D
:1001E800899179916991F9901990099018950E94CF
:1001F800280400E010E009B31127F8010E94C203A7
:10020800A3E3B3E383EB9EE30E94C70335969F0104
:100218000E94C203A3E3B3E383E290E40E94C7030E
:100228000E94C203A0E0B0E080E09FE30E94610565
:100238000E94EE04ECBF0E942D040C949C0131D066
:10024800D6DFFECFFFCFE0E0EABBEBBBEFEFE7BBCB
:10025800E0E0E8BBEFEFE4BBE0E0E5BBE3E0E1BBF7
:10026800E0E0E2BB0895E5E6E3BFE0E0E2BFE0E1FD
:10027800ECBFE0E0E2BDE7E0E5BDE0E0E4BDE3BD02
:10028800E0E4E9BF0895EBB7E06CEBBFE0E0E5BF61
:10029800E4BFE0ECEABF78940895A0E10E946B0304
:1002A8000895D1DFE0DFEFDFF8DF08950E947D04D5
:1002B8007B816A81F981E88177FB770F67FD71603F
:1002C800972F9E5781F078F0983190F4AA27BB2792
:1002D800882708948795B795A7959A95D1F7EA2323
:1002E800FB23682305C0E8947727EE27FF276627B6
:1002F8006F77769508F4606877F9A991B991899133
:100308009991EA17FB076807790797FB08950E94F8
:100318007D040E946E040E945A010E94730419F41D
:100328000E94CE0305C0E6F70E94CE030E94D103C7
:10033800249608950E947D0424971A930A930E9494
:10034800D8030E9493042CF0EFEFFFEF6FE77FEFE5
:1003580071C00E94DD030E947804ADB7BEB7119743
:100368001F930F930E949E040F911F910E94E20316
:100378000E94D803E3EFF4E065E37FE30E944206BE
:1003880040F40E94E7030E9461050E94E2030150C5
:1003980010400E94DD030E94D1037F936F93FF9367
:1003A800EF930E94DD03A0E0B0E080E89FE30E94A5
:1003B8006105AF91BF918F919F910E94FE050E94A8
:1003C800E2030E94E7030E94E903A6E2B2E485E69D
:1003D8009FE30E94F003EEE4F1E164E570E40E941B
:1003E800F5030E94D8030E94B0057F936F93FF9393
:1003F800EF930E94FA03ADE4B1E184ED9FE30E941C
:100408005A05AF91BF918F919F910E94FE057F93EE
:100418006F93FF93EF93F8010E94C203A8E1B2E73C
:1004280081E39FE30E94B005AF91BF918F919F91A7
:100438000E946105198108812A9608950E947D0409
:1004480028971A930A930E94FF03E0E5FCEA6EEAF4
:1004580072EC0E94420618F40E94040483C0EA85E4
:10046800FB856C857D850E948F0429F4E0E0F0E02F
:1004780060E87FE377C00E94FF03E8E1F2E761EB01
:1004880072E40E94420609F008F405C0EFEFFFEF9E
:100498006FE77FE767C00E94FF03EBE3FAEA68EBC8
:1004A8007FE30E94B005EA87FB876C877D870E94FF
:1004B800FF032DDF0E94F0048F010E94FF030E94BA
:1004C800C2030E94F503DF01CB01E0E0F0E060E049
:1004D8007FE30E94F5030E94E2030E94E7030E9463
:1004E800E903ADE6BCE48CE69DE30E94B005A6EA0C
:1004F800B3EE86EE90E40E9461050E94D8030E9444
:10050800B0050E94E2030E94FA03A8E2BDE886EA69
:1005180091E40E946105EA83FB836C837D830E94DA
:10052800DD03AA81BB818C819D810E946105A3EFB7
:10053800B4E085EB9FE30E94B0057F936F93FF9330
:10054800EF930E94D8030E94FA030E945A05AF91C4
:10055800BF918F919F910E94FE050E947804D80157
:100568000E94AF04198108812E9608950E947D0487
:1005780024970E9409040E948F0419F40E9404041D
:1005880045C0A885B9858A859B850E94930494F403
:100598000E940E040E948F0429F4E0E0F0E060E875
:1005A8007FE334C0A885B9858A859B850E9413049A
:1005B80045DF2CC00E940E04DE010E94F0040E9458
:1005C80064040E94CE030E942705DF01CB010E942C
:1005D8000E040E94990419F00E94040417C00E9496
:1005E80009040E94BB04DF01CB010E94130426DF2B
:1005F800E887F9876A877B87E881E17019F40E94A8
:10060800090404C00E9409040E94BB042C960895A2
:10061800AA93E5B3EF70AE2FE881E07FEA2BE5BB44
:100628008DE08A95F1F7AA9A8DE08A95F1F7AA9854
:100638008DE08A95F1F777C0AA93A881E9DFE88170
:10064800E295E883A881E4DF85E88A95F1F76BC035
:10065800AA93E881F0E0E358FE4FE081A981AE0F4C
:10066800EBDFB980A88022960895A2E00E941A04C0
:10067800ACE0E2DFA1E00E941A04E0E0AE2EBE2E5C
:100688000895AA93A881AA3011F0BD1448F0E0E0BB
:10069800EA93A394AA2DDCDFA881AA3009F443C009
:1006A800B394A89AA881C8DFA8983DC0BA93AA9322
:1006B8001A93A981BA81ED91A983BA831E2FE030DC
:1006C80019F0A12FDEDFF5CF188123960895AA939C
:1006D800E4B3E06FE4BBA29AA09AA19AAA98A8985A
:1006E800A998D880E881E058E0937F01E881E05438
:1006F800E0938001A4E1B0E00E9462060E94200419
:100708000E9420040E942004A0E282DF88EC90E08E
:100718000197F1F7A8E290DFA4E08EDFA5E88CDF6F
:10072800A6E08ADFA2DF21960895E0E0EA93A0E040
:100738000C942C030E945A03E0E0F0E060E070E4BF
:100748000E947804D201E4E0F0E00E945604089583
:100758000E943E040E942705DF01CB010E94BA02D5
:100768000E94F004E8BBE8E4F0E04E165F06089546
:100778004F010E9439034424552408950E943E04E1
:100788000E94270508950E94B0050E94F00466277C
:10079800772708950E9469040895A0E0B0E080E8F2
:1007A8009FE30E945A050895AE81BF818885998587
:1007B8000895EE81FF81688579850895EE83FF832A
:1007C800688779870895F5DFEFCF0E94B005EA833F
:1007D800FB836C837D8308950E94B005DF01CB0104
:1007E80008950E9482040E945A050895EA81FB81B7
:1007F8006C817D810895AA85BB858C859D8508952A
:10080800E0E0F0E060E070E00895E885F9856A8549
:100818007B850895EC81FD816E817F8108950E941A
:100828009E01AC81BD818E819F81D6CF0E9420031D
:10083800A3E0B0E00C946206A0E30E940C0388ECED
:1008480090E00197F1F708953A932A931A930A933F
:1008580008953B812A81198108810895F195E195D0
:10086800F0400895F09560957095E195FF4F6F4FB2
:100878007F4F08956F2F660F660B762F089500241B
:10088800112490E1AA0FBB1F001C111C0E1A1F0A8D
:1008980018F40E0E1F1E01C0A1609A9599F7FD016C
:1008A800D0010895E894B7FF04C0B195A195B04070
:1008B8006894F7FDD3DFE3DFFD010EF4CFDF089581
:1008C800ED93FD936D937C930895E881F9816A8196
:1008D8007B810895A881B9818A819B810895E883E5
:1008E800F9836A837B8308957A936A93FA93EA93E8
:1008F80008959A938A93BA93AA930895182E862FE7
:10090800612D192E972F712D1B2EBF2FF12D1A2E09
:10091800AE2FE12D0895309760407040089500246F
:100928000A160B06080609060895EA17FB07680762
:1009380079070895E991F9916991799177FB660FA3
:10094800771F88277E57880B7D938C937EE7769553
:1009580067956EF00895E991F9916991799177FB1E
:10096800660F771F7A0F769567950EF00895309782
:100978006040704009F070580895552342F450388B
:1009880011F4E0FF04C03196691F791F6BF050E83D
:10099800572711F45F93CFC05F3F31F0660F000C0B
:1009A80057956795752F08955F9300200AF0CEC07C
:1009B800C7C050E8192E1522880F991F9527550F83
:1009C800879550E8072E0522660F771F7527550F64
:1009D80067950895689401C0E8945F93F2DF7038D2
:1009E80018F07F3F08F4A7C056E1571BAAF45195A9
:1009F80058300EF4593030F0EFEFFFEF6FEF7FE72C
:100A080077F91AC077275523B9F0EE0FFF1F661F35
:100A1800771F5A95D1F710C07727583028F0EF2F55
:100A2800F62F672F5850F9CF552331F076956795F3
:100A3800F795E7955A95D1F700200AF413DF5F91EF
:100A48000895689401C0E894309760407040B1F010
:100A5800002426F0772312F4009404DF172E7EE199
:100A6800112032F07A95EE0FFF1F661F111CF9CF87
:100A7800EF2FF62F612D5F938ADF5F9108954F93D3
:100A8800AF01FD01DA01AB01BC01CA01402D012C07
:100A9800142E4F910895EA0FFB1F681F0895E095E3
:100AA800F0956095EF5FFF4F6F4F08955F9381DF7B
:100AB800903871F150E8152604C05F937ADF9038BA
:100AC80039F1703821F1572F591B2BF112F4D7DF68
:100AD800FACF583118F0AA27BB278827583028F0B2
:100AE800AB2FB82F88275850F9CF552329F0869572
:100AF800B795A7955A95D9F7502D512572F0CBDFA8
:100B080038F46795F795E795739513F41FC0B7DF29
:100B18003EDF5F910895D8F7FBCFEA1BFB0B680B0C
:100B280051F010F40094BBDF662392F3EE0FFF1F21
:100B3800661F7A95CBF7EE27FF27BF015F910895CF
:100B4800EFEFFFEF6FE77FEF5F910895EFEFFFEFB4
:100B58006FE77FE75F9108955F932BDF703859F354
:100B6800903849F301240894791F23F424F30020D2
:100B78003AF3ECCF0F921F932F933F934F93112784
:100B880022279927689FA0018F9F302D410D591F5B
:100B98006B9F300D411D591F8E9F27D0BF9F25D0B9
:100BA8006A9F23D0BE9F1DD0AF9F1BD0AE9F110D53
:100BB800291F391F491F591FE32FF42F652F522F63
:100BC8004F913F912F911F910F9066232AF0550F57
:100BD800EE1FFF1F661F02C073954BF2CEDE5F91BA
:100BE8000895100D211D391F02C0200D311D491F08
:100BF800591F08955F93DDDE703821F411200AF43F
:100C08009FCFA4CF903809F496CF01240894970B6E
:100C18001BF4D4F30020F3CF792F1F932F933F9326
:100C28004F931124112722273327A90190E2AE17E9
:100C3800BF078607410730F0AE1BBF0B860B410B81
:100C4800089401C08894551F221F331F111CAA1F26
:100C5800BB1F881F441F9A9551F7F901612D4F91C9
:100C68003F912F911F91662332F0550FEE1FFF1F02
:100C7800661F7A954BF281DE5F91089599239AF069
:100C8800772342F0971748F029F4AE17BF07860775
:100C980020F031F0989488940895989408940895D1
:100CA8001894889408957723C2F7971798F3A9F7AB
:100CB800EA17FB07680788F399F3ECCF109639F029
:100CC800A89580ED97E00197F1F71197C9F7089576
:00000001FF
